:020000040001F9
:0600000094EFA7F01200CE
:020006001200E6
:0600080097EFA7F01200C3
:060018009BEFA7F01200AF
:02001E000100DF
:0C002000D1B40100EE000000110000004F
:04002C00AAECA5F0A5
:10003000DE6ADD6ADECF14F0DDCF15F0D890155002
:1000400002E6F5ECA1F008E245EC9CF02AEC9FF00A
:10005000DF2AF0E3DB2AEED70001EE69EF69F069F1
:10006000F169F26BF36BF46BFAECA1F0F96BFA6BDC
:10007000FB6BFC6B79ECD1F0B10EE66E020EE66E16
:1000800059DAE552E552000905E102010F6B010E54
:10009000F36E01D0F36AF46A020EE15C02E2E16AF7
:1000A000E552E16E6AEF9CF065EC9CF00B0E07ECFC
:1000B000A5F075EC9EF00B0E14ECA0F042ECA2F053
:1000C00033EC9CF02A0E8AECA2F0FF0E141A151ADB
:1000D000020E14C0DBFF030E15C0DBFFD950040F66
:1000E0004FECA3F004E19EECA6F00BE107D0040E68
:1000F000DB500F0B06E09EECA6F003E11B0E14ECA8
:10010000A0F0060EDB501B0801E1BED0060EDB504E
:1001100001E1BAD0D950040F28ECA3F09AEC8CF08E
:1001200013EC9DF0E76E090EE7CFDBFFDB50020812
:1001300001E1AAD0090EDB5001E09AD012EC9CF04C
:100140002A0E19EC9CF008EC9EF03F0EDE16DD6ADC
:10015000F90EDB50010A24E0010A01E08ED0D6EC52
:100160009CF0080EEE1801E1ED5001E186D0060E7C
:10017000DB6A6D0E49EC9FF00A0EDB6A0B0EAFECEA
:10018000A5F001E37AD093ECA2F0EFCFDBFF86EC91
:100190009CF067E11750151864E10A0EDB2AEED7D0
:1001A00088ECA1F0DE501614146EDD501714156E95
:1001B0001450151062E1D6EC9CF00F0EEE1801E120
:1001C000ED505BE0060EDB6A6D0E49EC9FF033EC00
:1001D0009CF01B0E15ECA6F02A081DE00A0EDB6A47
:1001E000080EAFECA5F017E293ECA2F004ECA1F03E
:1001F0002A0811E0080EDB503F080AE086EC9CF06C
:1002000002E11750151804E00B0E14ECA0F003D017
:100210000A0EDB2AE5D733EC9CF01B0E19EC9CF0A0
:1002200003ECA6F0EF502A0828E0060EDB5025E18B
:10023000080EF36E0A0EF3CFDBFF0B0EAFECA5F04A
:100240001CE293ECA2F004ECA1F02A0816E0080EE0
:10025000DB503F080AE086EC9CF002E117501518CD
:1002600004E00B0E14ECA0F008D00A0EDB2AE5D750
:10027000FA0EDB5002E1060EDB6A040EDB2A050EE5
:1002800001E244D7DB2A42D7060EDB50146E0B0E78
:10029000E15C02E2E16AE552E16E14506AEF9CF023
:1002A00044ECA4F0070EDB6AB7ECA3F045EC9CF03D
:1002B000230E15ECA6F003E1070EF36E21D042ECFD
:1002C000A2F033EC9CF0EE50ED1004E161ECA4F0F0
:1002D0000AE106D0B3ECA5F006E061ECA4F003E17E
:1002E0001B0E49EC9FF033ECA6F09AEC8CF013EC6B
:1002F0009DF048ECA1F0DB5006E00B0EF36E070E0C
:10030000F3CFDBFF75D024ECA3F08AEC9EF02DEC4C
:10031000A6F012EC9CF04DECA1F00DECA5F0020E55
:10032000DB0404E10B0E49EC9FF04AD08EECA2F006
:10033000C8ECA2F08DECA6F0030E06C0DBFF040EA5
:1003400007C0DBFF050E08C0DBFF060E09C0DBFFA0
:100350000001F95105E0B3ECA0F002E0090E4AD02B
:10036000FD0EDBCFF3F0FE0EDBCFF4F0D950030F20
:1003700061EC9CF00001F551EE1808E1F651EE1821
:1003800005E1F751EE1802E1F851EE1819E0FB6BA8
:1003900045EC9CF0D1ECA2F0D950030FA7ECA2F0F1
:1003A00003E1080E49EC9FF0030EDBCFF5F0040EDD
:1003B000DBCFF6F0050EDBCFF7F0060EDBCFF8F063
:1003C0001FECA3F0EF94FA0EDB50770804E0FA0E6E
:1003D000DB50610807E11FECA3F0EF801FECA3F0F6
:1003E000EF9206D01FECA3F0EF901FECA3F0EF828A
:1003F000070EDB50146E080EE15C02E2E16AE55282
:10040000E16E14506AEF9CF065EC9CF0130EE1264F
:10041000100EDB6A12EC9CF0110EEECFDBFF120E19
:10042000EDCFDBFF8FECA1F0220E15ECA6F0020A57
:1004300016E0030A0BE0020A12E1F1ECA3F00E0E43
:10044000DB680F0EDB6E32ECA0F00FD0F80EADECD7
:100450009DF00F0EF36E0D0EF3CFDBFF02D0F1EC2B
:10046000A3F0A1ECA4F011EC9FF08EECA2F04CEC08
:100470009DF018EC9DF086ECA7F0110EDBCFE6FFA7
:10048000120EDBCFE6FFDAECA6F00CE107501618EF
:1004900009E10850171806E10950181803E102E1B4
:1004A000080E14D08FECA1F02BECA7F023EC9CF0FD
:1004B000B7ECA5F005E30A0EF36E100EF3CFDBFFE9
:1004C000B2EC9DF0B7ECA5F005E33C0EF36E100E18
:1004D000F3CFDBFF8EECA2F0DFCFEEFF010EDBCF20
:1004E000EEFF96ECA1F049ECA4F0EF06EECF14F08D
:1004F000000EEF5AEECF15F0EF5AEECF16F0EF5A8E
:10050000EFCF17F0D8801454000E1554000E165477
:10051000000E175403E2100EDB50A7E0100EDB5064
:10052000146E130EE15C02E2E16AE552E16E1450D2
:100530006AEF9CF0A6ECA4F0DF6A12EC9CF0230EAC
:1005400019EC9CF0EF6A12EC9CF0000EEE6E080EB7
:10055000ED6E7BECD1F0DE5219ECA0F0DD5251ECE7
:100560009CF0EF5005E0060EDF6E02010F6F34D0F5
:1005700051EC9CF0EE52EF50010B17E051EC9CF067
:1005800062ECA7F03CECA6F041EC9CF051EC9CF046
:1005900019EC9CF0D880EE54020EED5406E2210EC8
:1005A000DF6E02010F6FDF5018D02CEC9CF01FD8CB
:1005B000E552E552DF6EDF500FE12CEC9CF0D2D813
:1005C000E552E552DF6EDF5007E112EC9CF0230E9E
:1005D00019EC9CF0010EEF6EDF50146E030EE15C1F
:1005E00002E2E16AE552E16E14506AEF9CF065ECBC
:1005F0009CF0060EE126020EDB6A44ECA6F0E66AE9
:10060000E66AE66AE66A89ECD1F074EC9CF00108CF
:1006100007E0080E1EECA0F00201080E0F6F96D046
:1006200012EC9CF075EC9EF0BFEC9CF0FE0E23ECFF
:10063000A0F055084BE1BFEC9CF0BBECA5F046E107
:10064000F7ECA3F0EF5046081DE1F7ECA3F0C0EC87
:10065000A5F0410817E1F7ECA3F0C3ECA5F05408AE
:1006600011E1F7ECA3F0C6ECA5F031080BE1BFEC0B
:100670009CF0260E15ECA6F0290804E1DFECA6F0AC
:10068000020E21D0FCECA3F0EF5046081FE1FCEC79
:10069000A3F0C0ECA5F0410819E1FCECA3F0C3EC19
:1006A000A5F0540813E1FCECA3F0C6ECA5F0330868
:1006B0000DE1BFEC9CF0420E15ECA6F0290806E116
:1006C000DFECA6F0030EEF6E000E42D0B7ECA3F005
:1006D00045EC9CF023ECA0F0550805E145EC9CF0BE
:1006E000BBECA5F003E00201040E2DD014ECA5F044
:1006F00003ECA6F023EC9CF0CCECA2F041EC9CF0D7
:1007000014ECA5F0040E19EC9CF0030E04ECA1F01F
:100710000B0A12E0070A10E0080A0AE0020A08E0E1
:10072000080A06E00F0A0DE14DECA2F0010E07D019
:100730004DECA2F0020E03D04DECA2F0030EEF6ED2
:1007400005D00201050E0F6F1EECA0F0020EDB506B
:10075000146E060EE15C02E2E16AE552E16E1450AD
:100760006AEF9CF065EC9CF0150EE1260C0EDB6A3E
:10077000C9ECA5F044ECA6F0CCECA2F0E5ECA6F0B8
:10078000010804E0080EADEC9DF0EBD112EC9CF0FA
:100790000D0EEECFDBFF0E0EEDCFDBFF3AEC9CF043
:1007A000FE0E23ECA0F0550805E13AEC9CF0BBEC02
:1007B000A5F002E0030E3CD13AEC9CF00D0E15ECD6
:1007C000A6F0E66EC7ECA6F0E9EC9EF03AEC9CF0E1
:1007D0008AECA2F083ECA6F08EECA2F0CEECA5F0B1
:1007E000100E15ECA6F0E66E01ECA4F0E9EC9EF01C
:1007F0003AEC9CF0160E62ECA7F045ECA3F041EC4D
:100800009CF045ECA3F02BECA3F00BE13AEC9CF050
:10081000240E19EC9CF023EC9CF045ECA3F041EC89
:100820009CF045ECA3F008ECA1F001ECA4F0EFCFB4
:1008300018F0196A1A6A1B6A54EC9EF002C014F090
:1008400003C015F004C016F005C017F08EECA2F03E
:1008500058EC9CF058ECA6F0CEECA5F0110E62EC32
:10086000A6F0120E41ECA3F0B9ECA4F00AE03AECC9
:100870009CF0130E8AECA2F09DECA1F028ECA0F005
:1008800007D03AEC9CF0200E19EC9CF04CEC9DF05B
:100890000EECA7F00F0EEECFDBFF100EEDCFDBFF5F
:1008A000D9500F0F4FECA3F00CE0010EE76E1BECDC
:1008B000A5F0E7501416156A010E141804E115503E
:1008C00002E1210EB5D00EECA7F0EECF1CF0EFCF79
:1008D0001DF03AEC9CF0110E19EC9CF0EECF18F0E4
:1008E000EFCF19F0050ED89018361936E806FBE15F
:1008F0000EECA7F0EECF1AF0EFCF1BF01A061B5A42
:1009000018501A24166E19501B20176E16C008F0C6
:10091000096E1CC00DF01DC00EF022ECA5F0000EFB
:1009200008C0DFFF010E09C0DBFFBBECA3F0D6EC73
:100930009CF0EEEC9CF058ECA6F0B7ECA0F0040FA5
:1009400061EC9CF07DEC9FF0080E14C0DBFF090EFB
:1009500015C0DBFF0A0E16C0DBFF0B0E17C0DBFF56
:10096000C7ECA6F0EFCF18F0196A1A6A1B6A29ECD7
:100970009EF0080EDBCF06F0090EDBCF07F00A0E63
:10098000DBCF08F00B0E71ECA7F012EC9CF02BEC17
:10099000A7F01AEC9FF0C1ECA4F00F0E3CECA1F014
:1009A00004E24DECA2F0010E0DD0C1ECA4F0FF0E5C
:1009B0003CECA1F004E24DECA2F0020E03D04DECB1
:1009C000A2F0030EEF6E6EECA7F012E13AEC9CF091
:1009D0002C0E19EC9CF0EECF0BF2EECF0CF2EECF1A
:1009E0000DF2EFCF0EF2D6EC9CF023EC9CF012D07F
:1009F00002010B6B0C6B0D6B0E6B12EC9CF0120E6C
:100A00008AECA2F0040ED89015321432E804FBE10F
:100A1000166A176AC7ECA4F024ECA3F0CEECA5F09C
:100A200058ECA3F0D880EE54020EED5403E2210EF0
:100A3000ADEC9DF06EECA7F00DE00C0EDB5001E18B
:100A400090D071ECA3F0290805E071ECA3F0280820
:100A500001E087D0B9ECA4F04BE1FBECA2F0EF5041
:100A600047E1FBECA2F0C0ECA5F042E1FBECA2F008
:100A7000C3ECA5F03DE1FBECA2F0C6ECA5F038E13B
:100A8000FBECA2F0040E15ECA6F032E1FBECA2F0B8
:100A9000050E15ECA6F02CE1FBECA2F0060E15EC11
:100AA000A6F026E1FBECA2F0070E15ECA6F020E183
:100AB000FBECA2F003ECA6F0EF501AE1FBECA2F085
:100AC000090E15ECA6F014E1FBECA2F00A0E15ECF1
:100AD000A6F00EE1FBECA2F058ECA3F0EF5008E119
:100AE00071ECA3F0290807E071ECA3F0280803E0FB
:100AF000030EADEC9DF00C0EDB5016E0130EDB5038
:100B000013E1010EF36E130EF3CFDBFF44ECA6F0FE
:100B10003AEC9CF0320E8AECA2F083ECA6F0E8EC02
:100B20009CF001081BE016D00C0EDB501AE0140EEE
:100B3000DB5017E1010EF36E140EF3CFDBFF44EC34
:100B4000A6F0060E146E156A83ECA6F0E8EC9CF095
:100B5000010804E00201080E0F6F0BD00C0EDB6AD7
:100B60001DD60C0EDB5003E00C0EDBCF0FF20C0E8B
:100B7000DB50146E150EE15C02E2E16AE552E16EB3
:100B800014506AEF9CF0D2ECA5F0DE6ADE6ADE6AF1
:100B9000DD6ADD52DD5212EC9CF0140E8AECA2F0FC
:100BA000C1ECA0F0D6EC9CF023EC9CF0100E1F0BD7
:100BB00003E0EFEC9DF0FDE11DEC9EF012EC9CF0EB
:100BC0001A0E62ECA7F01450DE121550DE12165009
:100BD000DE121750DD12DD52DD528AEC9FF002E288
:100BE000E16AE552E16E6AEF9CF0D7ECA5F0B7EC54
:100BF000A3F012EC9CF0300EABECA3F045EC9CF0B3
:100C000067ECA7F0EEEC9CF0050ED8901B321A3280
:100C100019321832E806F9E14DECA4F0166A176AA9
:100C20008AEC9DF029EC9EF0EFECD9F0030E06C0A3
:100C3000DBFF4AECA3F0EF50010A05E0030A03E0F2
:100C4000010A1FE10ED0D950080F06ECA4F008E10C
:100C5000EE500C1905E1EE500D1902E1EE500E199F
:100C600010E045EC9CF08DECA3F0EFCF14F014C035
:100C70000EF0030EDBCF09F047ECDAF0030E05C0EF
:100C8000DBFFD950080F6CECA6F017ECA4F0E66A75
:100C900045EC9CF0D1ECA2F0030E39ECA3F0EDECA6
:100CA0009EF0000903E1020EDB6A03D0010E1EEC88
:100CB000A0F0DB50146E0C0EE15C02E2E16AE5523A
:100CC000E16E14506AEF9CF065EC9CF00D0EE1268D
:100CD0000C0EDB6AF90EDBCFE9FFFA0EDBCFEAFF81
:100CE000220E15ECA6F0020A18E0030A0EE0020A32
:100CF00014E132ECA0F042ECA1F0050EDB68060E28
:100D0000DB680F0E49EC9FF010D011EC9FF042EC25
:100D1000A1F00F0EA9ECA0F006D011EC9FF042EC70
:100D2000A1F0050EDB6828ECA0F0FB0EDBCF14F081
:100D3000FC0EDBCF15F0FD0EDBCF16F0FE0E41EC06
:100D40009DF00DE0D950FB0F74EC9DF0010EEE18F4
:100D50000AE1EE5008E1EE5006E1EE5004E1020E29
:100D6000ADEC9DF059D00C0EDB5056E118EC9DF027
:100D700066ECA4F0DAECA6F00CE10750161809E1D5
:100D80000850171806E10950181803E102E1010E96
:100D90000FD012ECA7F00BE0D6EC9CF0010EEE1891
:100DA0000AE1EE5008E1EE5006E1EE5004E1020ED9
:100DB000ADEC9DF0D8D75DEC9DF0B7ECA5F003E36A
:100DC000020EADEC9DF018EC9DF08BECA4F066ECFF
:100DD000A4F00DEC9DF050EC9DF0065015180DE1BF
:100DE000075016180AE10850171807E1095018189B
:100DF00004E103E1010EADEC9DF0D6EC9CF0FB0E9E
:100E0000EECFDBFFFC0EEECFDBFFFD0EEECFDBFF08
:100E1000FE0EEECFDBFFA7D739EC9DF082ECA0F001
:100E20000DEC9DF00C0EDB50020802E1010E01D02A
:100E3000000E146E0D0EE15C02E2E16AE552E16E15
:100E400014506AEF9CF065EC9CF0170EE12612EC52
:100E50009CF0020EEECFDBFF030EEDCFDBFF12ECBA
:100E60009CF02C0EABECA3F075ECA6F0C8ECA0F057
:100E7000130EEECFDBFFAFEC9CF067ECA7F0EECFEC
:100E800006F0EECF07F0EECF08F0EFCF09F0200E1E
:100E90000B6E0C6A0D6A0E6AEFECD9F0160E06C0E6
:100EA000DBFFDB50146E156A33EC9CF0ABECA4F066
:100EB00014C00DF015C00EF013ECDAF0140E08C0DB
:100EC000DBFF29ECA5F0010A0EE0030A0CE0010AA1
:100ED0000AE1EBECA6F0F1ECA3F00E0EDB680F0ECE
:100EE000F36EDB6E0BD01AECA4F041EC9DF002E047
:100EF000EBECA6F0F1ECA3F0A1ECA4F0FA0EDB50C1
:100F000004E1B3ECA5F001E0C6D0140EDB500BE118
:100F10004DECA4F0160EDB50166E176AE850145C08
:100F20001750155803E2FA0EDB5050E01AECA4F00B
:100F300041EC9DF007E1FFECA1F0120EDB6A130E0D
:100F4000DB6A44D0FA0EDB5026E0AFEC9CF08DEC6F
:100F5000A3F0EF50186E196A160EDB50166E176A62
:100F6000086E17C009F018C00DF019C00EF04CEC57
:100F7000D6F006C014F007C015F033EC9CF0ABECD3
:100F8000A4F006C00DF007C00EF013ECDAF0150E59
:100F900008C0DBFF03D0010EB0ECA4F0DB5016E07C
:100FA00076ECA4F089ECA3F0100E06C0DBFF110E66
:100FB00007C0DBFF120E08C0DBFF130E09C0DBFF0A
:100FC0006EECA4F003E2150EDB06E8D76EECA4F09D
:100FD0005CE275ECA6F0D2ECA0F0130EDBCFEEFFD6
:100FE00076ECA4F017ECA4F0D950100F06ECA4F0A6
:100FF0001AE1EE500C1917E1EE500D1914E1EE5004
:101000000E1911E110E1140E39ECA3F0AFEC9CF0D5
:101010002EECA7F011ECA1F006E3030E186E29ECFC
:10102000A5F0185C35E10001F95106E0B3ECA0F041
:1010300003E0F36AF46A3CD00001F36BF46BFB6BE2
:10104000AFEC9CF0D1ECA2F0140E39ECA3F0E8EC7C
:101050009CF0010803E0DE6ADD6A13D0FA0EDB5073
:101060000CE07BECA4F0D89016361736E806FBE1CE
:10107000AFEC9CF0DCECA0F004D0AFEC9CF008EC02
:101080009EF00001FAECA1F011D00001010EFA6F00
:10109000DE6ADD6A0BD07BECA4F0D89016361736EA
:1010A000E806FBE1AFEC9CF0DCECA0F01EEC9FF05E
:1010B000170EE15C02E2E16AE552E16E6AEF9CF034
:1010C00065EC9CF0E652DF6A02010F6B33EC9CF09A
:1010D000EE6AED6A33ECA6F081D813EC9DF00009BE
:1010E00014E1FA0EDBCFE6FF33ECA6F00BD9C0EC2F
:1010F000A3F0DF6EDF500BE1F90EDB5008E02CECC3
:101100009CF00BD8E552E55201D0140EDF6EDFCF14
:101110000FF2DF50E5526AEF9CF065EC9CF00D0E8B
:1011200007ECA5F0ABECA1F0D950010F28ECA3F02F
:101130006CEC90F013EC9DF0DF6EDF5044E1D95081
:10114000090F28ECA3F016ECA7F00B0EF3CFDBFF92
:101150000C0EF4CFDBFF146804ECA2F0010FC5EC19
:10116000A3F0B2ECA1F01A0E41ECA3F0146A156AD8
:1011700016680F0E176ED950010FC5ECA3F0BFEC27
:101180009DF076ECA3F0070EDBCF16F0080EDBCF58
:1011900017F0100EF6EC9DF0FDE1BFEC9DF0B2EC07
:1011A000A1F02BECA7F0050EDBCFEEFF060EDBCF98
:1011B000EDFFD950090F28ECA3F0CBECA6F0010805
:1011C00002E0090EDF6EDF50146E0D0EE15C02E2EC
:1011D000E16AE552E16E14506AEF9CF0D7ECA5F09D
:1011E000010EDF6E030EDB6A33EC9CF075EC9EF0B3
:1011F00091ECA6F033ECA6F02EECA5F0B9ECA1F042
:1012000035ECA5F06CE0010E1EECA0F0DF0467E108
:10121000010EDB6A33EC9CF075EC9EF0E66A89EC1B
:10122000A7F0B9ECA1F01AECA7F009E00A0EDBCFA9
:10123000E9FF0B0EDBCFEAFF030EEFCFDBFF33EC52
:101240009CF0EE2A000EEF221AECA7F010E0030E3D
:10125000DB50E50803E0030EDB5009E1010EDB2A59
:10126000020EDB50F36E010EA8EC9DF0D7E31AECF2
:10127000A7F02CE175ECA6F0CCEC9DF0D950060F50
:1012800006ECA4F01BE1EE500C1918E1EE500D191C
:1012900015E1EE500E1912E111E112EC9CF0EE5046
:1012A000EFCFEAFFE96E220E15ECA6F003080BE182
:1012B0008EECA2F0C9ECA3F010E105D08EECA2F008
:1012C000C9ECA3F00AE1020EDF6EA0D7020EDB50DC
:1012D000F36E010EDB50F35C99E1DF6A97D733ECD4
:1012E0009CF0040EDBCFEEFF050EDBCFEDFFDF50F1
:1012F000146E0C0EE15C02E2E16AE552E16E1450FC
:101300006AEF9CF0A6ECA4F0DF6A91ECA6F089EC01
:10131000A7F0DE5219ECA0F0DD52D950010F4FECCE
:10132000A3F002E11B0E84D00B0EE66EE66A12EC0F
:101330009CF07AECA6F009ECA2F051EC9CF0E9CF1D
:1013400016F0EACF17F009ECA2F044ECD7F0DCEC91
:10135000A5F0FA0EDB50120804E11EECA7F0100E07
:1013600003D01EECA7F0200EEF6E51EC9CF00C0E9B
:1013700019EC9CF0EF6A51EC9CF0140EEB6A150E20
:10138000EB6A51EC9CF01A0EEB6A1B0EEB6A51EC07
:101390009CF01C0E19EC9CF08AEC9EF051EC9CF039
:1013A0000D0E19EC9CF000C2EFFF51EC9CF02EECFE
:1013B000A7F001C2EEFF02C2EDFF51EC9CF0100E4F
:1013C00019EC9CF003C2EEFF04C2EDFF51EC9CF05F
:1013D000120E19EC9CF005C2EEFF06C2EDFF51ECB7
:1013E0009CF0CAECA4F051EC9CF0D2ECA4F051ECCF
:1013F0009CF09AECA3F051EC9CF00E0E6AECA7F076
:1014000051EC9CF0100E62ECA6F0190E41ECA3F02A
:101410001EECA7F0EF505BECA3F0D4ECA6F033EC9D
:10142000A6F0CBECA6F0010802E0090EDF6EDF505B
:10143000146E030EE15C02E2E16AE552E16E1450C3
:101440006AEF9CF0AAECA5F097ECA0F0BC0E145C3F
:10145000070E15582AE3D950FD0F74EC9DF03B0E92
:10146000D880EE54080EED5420E3010EF36EFC0E0E
:10147000A8EC9DF01AE3FC0EDB500C0816E3010EFD
:10148000F36EFB0EA8EC9DF010E3FB0EDB501F0883
:101490000CE3FA0EDB50170808E3F90EDB503B08AB
:1014A00004E3F80EDB503B0805E202011F0E36ECA8
:1014B000A2F05ED097ECA0F0BC0E145E070E155A99
:1014C00014C015F0146AD890153614C0DEFF15C08C
:1014D000DDFFFC0EDB50146E156A050ED890143635
:1014E0001536E804FBE13CECA5F0FB0EDB50DF1207
:1014F000DECF05F2DDCF06F2DECF03F2DDCF04F260
:10150000DECF09F2DDCF0AF2FA0EDB50146E156A57
:10151000E850146AE834E834E834F80B156E14C067
:10152000DEFFDD6EF90EDB50146E156A050ED890E5
:1015300014361536E804FBE13CECA5F0F80EDB5060
:10154000FE0BE842DF12DECF01F2DDCF02F2DECF8A
:1015500007F2DDCF08F2F80EDB50010B04E00201C8
:10156000640E006F02D00201006B0F6BF36AF46A25
:10157000020EE15C02E2E16AE552E16E6AEF9CF084
:1015800065EC9CF00A0EE126B7ECA3F08EECA2F01D
:10159000020EEECFDBFF030EEECFDBFF4AECA5F031
:1015A00043ECA5F0A4EC9FF021ECA4F041EC9DF0FD
:1015B00002E1150E39D04AECA3F0EF0406E1E66A29
:1015C000F80EE66E0F0EE66E07D04AECA3F0EF5071
:1015D000020805E157ECA1F0E66AE66A05D057EC8F
:1015E000A1F0E6680F0EE66ED950020F77ECA7F077
:1015F000CCEC9DF0E66AD950020F8CECA7F0D950E4
:10160000060F77ECA7F096ECA1F0C0ECA1F0FC0E71
:10161000DB0409E1D950020F6CECA6F0D9EC90F094
:1016200074EC9CF001D0000E146E0A0EE15C02E234
:10163000E16AE552E16E14506AEF9CF065EC9CF0B3
:10164000160EE126BBECA3F05CECA1F0B7ECA3F026
:101650008EECA2F0CCEC9DF04AECA3F0EF50020A25
:101660001BE0030A14E0020A17E19EECA0F0DB681D
:10167000100EDB680F0EF36E110EF3CFDBFF0EECD6
:10168000A2F0140EDB680F0EB0ECA4F010D09EECAC
:10169000A0F0F36EDB6E03D09EECA0F0DB68FFECF5
:1016A000A1F00EECA2F0140EDB6A150EDB6AD95025
:1016B000060F61EC9CF0020EEE5C000E3CECA1F01B
:1016C00002E2D8ECA4F0D950060F61EC9CF00A0EAF
:1016D000EECFDBFFE6ECA0F07CECA7F028ECA4F06A
:1016E00041EC9DF065E065ECA1F0DBCF17F0150E45
:1016F000F0ECA6F07CECA7F050EC9DF0A4EC9FF091
:10170000065015180AE10750161807E10850171877
:1017100004E10950181801E147E021ECA4F041EC84
:101720009DF046E0D950060FB5ECA4F021ECA4F0F2
:10173000DBCF17F0D9500E0FE1ECA5F008E1155002
:10174000EE1805E11650EE1802E11750EE1817E0FA
:10175000020E186E196A1A6A1B6A45EC9CF02BEC93
:10176000A7F0B7ECA0F0060F61EC9CF01850EE5C0F
:101770001950EE581A50EE581B50EE5802E3D8ECB0
:10178000A4F028ECA4F0DBCF17F0D9500A0FE1EC5D
:10179000A5F0A4E11550EE18A1E11650EE189EE157
:1017A0001750EE189BE19AE128ECA0F013ECA2F0A0
:1017B00028ECA4F0DBCF17F08AEC9DF0160EE15C6C
:1017C00002E2E16AE552E16E6AEF9CF044ECA4F0BB
:1017D000480EF36E040EF3CFDBFF050EDB6A020149
:1017E0000F6B12EC9CF091ECA4F01FECA3F0EF5007
:1017F000010B64E00001F95108E0B3ECA0F005E052
:101800000201090E36ECA2F08DD039EC9DF044ECCB
:10181000A6F00DEC9DF00001EE6BEF6BF06BF16B41
:101820008EECA2F01DEC9CF044ECA6F089ECA3F049
:1018300063ECA3F0C7ECA1F0D950060F4FECA3F076
:1018400008E102011B0E0F6F040EDB68050EDB685A
:1018500065D0A1EC9CF0CAECA4F0A1EC9CF0D2EC19
:10186000A4F05DECA6F023EC9CF0A1EC9CF01C0E27
:1018700019EC9CF041EC9CF012EC9CF02A0E15EC5B
:10188000A6F0E66EA1EC9CF058ECA3F0E9EC9EF01B
:10189000CBEC9EF0B2ECA3F007E063ECA3F0C7EC56
:1018A000A1F05CECA1F007D00201090E0F6F040E4D
:1018B000DB68050EDB681FECA3F0EF90BBECA3F038
:1018C00001EC9EF0F5ECA1F020E297ECA0F088ECA2
:1018D000A1F0340E1702F3CF17F01602F3CF16F073
:1018E000F45017267C0E16260D0E172216501418CB
:1018F00006E11750151803E1E6ECA5F006D0020E3C
:10190000DB2A030EDDE3DB2ADBD740ECA6F0480E32
:10191000EE1804E1ED5002E15CECA1F02FECA4F034
:10192000EAECA5F0080EE15C02E2E16AE552E16E44
:101930006AEF9CF065EC9CF0070EE126060EDB6A70
:10194000B3ECA5F008E133EC9CF0EE50ED1003E0B1
:1019500091ECA6F001D0E66A00ECA3F002E1020EE1
:1019600009D051ECA5F002E1010E04D0030EDB50CA
:1019700004E1020EA9ECA0F060D0ADECA6F0EFCF30
:10198000DBFF020EDB6A080EF36E020EA8EC9DF080
:1019900005E245EC9CF0D6ECA2F0F5D7ADECA6F054
:1019A000EFCFDBFF45EC9CF003ECA6F03AECA2F0A5
:1019B000020EDB6A030EF36E020EA8EC9DF007E246
:1019C00045EC9CF003ECA6F0D6ECA2F0F3D7D4ECF7
:1019D000A6F051ECA5F004E1010EA9ECA0F002D0B4
:1019E000050EDB6A45EC9CF09AECA3F01AECA1F032
:1019F0007CEC9EF0CCECA2F01AEC9FF0ADECA6F0E3
:101A000004ECA1F05BECA3F0030EDBA809D045ECDD
:101A10009CF00E0E6AECA7F045EC9CF0100E08D07E
:101A200045EC9CF0160E6AECA7F045EC9CF0180E05
:101A300062ECA6F0190E41ECA3F0050EDB50146E1B
:101A4000070EE15C02E2E16AE552E16E14506AEFD2
:101A50009CF0A6ECA4F091ECA6F000ECA3F024E03E
:101A600045EC9CF0020E04ECA1F002E1DE6ADD6AB6
:101A7000CFECA6F01CE0020EDB50E50803E1DE6AC5
:101A8000DD6A15D045EC9CF058ECA3F0020E04EC96
:101A9000A1F00F080CE133EC9CF0EE2A000EEF22CF
:101AA000E66A00ECA3F0EEE1F36AF46A02D01EEC01
:101AB0009FF0030EE15C02E2E16AE552E16E6AEF3B
:101AC0009CF0D7ECA5F0030EDB6A5CECA1F028ECEF
:101AD000A0F0010EF36E0B0EF3CFDBFF12EC9CF0C7
:101AE000CEECA1F0010EF36E0A0EF3CFDBFF020184
:101AF000010E0F6F0A0EDBCFF3FFDB06F350000978
:101B00003AE091ECA6F000ECA3F002E11B0E5DD0F0
:101B100045EC9CF0020EEFCFDBFFCFECA6F007E028
:101B2000020EDB5004E0020EDB50E50802E10B0E72
:101B30000AD045EC9CF0E50EEF6EA8EC9CF0B2EC00
:101B4000A3F006E1010EF36E030EF3CFDBFF13D01B
:101B50000B0EDB5006E01AECA1F000EC9DF00B0E32
:101B6000DB6A4DECA4F01406000E155A33EC9CF021
:101B70000DEC9EF0BFD7030EDB5025E1D950040FCA
:101B800006ECA4F008E1EE500C1905E1EE500D1939
:101B900002E1EE500E1914E0FA0EDB5011E0D5EC24
:101BA000A1F086ECA7F064EC86F074EC9CF00009E0
:101BB00002E0000E01D0010EE76E030EE7CFDBFF5F
:101BC000030EDBCF0FF2030EDB50146E0C0EE15C44
:101BD00002E2E16AE552E16E14506AEF9CF065ECB6
:101BE0009CF06D0EE12602010F6B3EECA2F003E0CB
:101BF0000201180E92D0A8EC9CF038EC9FF0B2ECE9
:101C0000A6F038EC9FF02CEC9CF0FFEC9FF003E189
:101C10000201120E82D0280EDB6A290EDB6AFDC09B
:101C2000E9FFFEC0EAFF2C0E19EC9CF02E0EEECF61
:101C3000DBFF2F0EEECFDBFF300EEECFDBFF310EE2
:101C4000EECFDBFFFDC0E9FFFEC0EAFF300E19EC6E
:101C50009CF0320EEECFDBFF330EEECFDBFF340E07
:101C6000EECFDBFF350EEECFDBFF38EC9FF0DCEC88
:101C7000A1F0B2ECA6F0010EE66E38EC9FF0DCECC1
:101C8000A1F054EC80F074EC9CF00B0844E133ECD0
:101C90009CF091ECA4F0CBEC9EF0A8EC9CF016EC40
:101CA000A7F06A0EF3CFDBFF6B0EF4CFDBFF6C0EF9
:101CB000DB6A0B0EF36E6C0EA8EC9DF021E26DEC6E
:101CC000A1F00F011624AEECA0F0EF50E66E33EC5D
:101CD0009CF01B0E19EC9CF083ECA4F06DECA1F0D1
:101CE0001624AEECA0F0EF50E66E6A0EDBCFE9FFF3
:101CF0006B0EDBCFEAFF83ECA4F06C0EDB2AD9D7A6
:101D0000CBEC9EF0A8EC9CF0CBECA6F0000908E12F
:101D10000201090E02D00201110E36ECA2F002D02F
:101D2000F36AF46A6D0EE15C02E2E16AE552E16E8B
:101D30006AEF9CF044ECA4F033EC9CF03AECA2F097
:101D40003EECA2F00BE0040EDB50720807E0040E3C
:101D5000DB50520803E00201180E3AD0DE6ADD6A59
:101D6000BBECA3F001EC9EF0D890155002E6F5EC28
:101D7000A1F021E258ECA5F0EF5017E058ECA5F0E7
:101D8000EF6A01EC9EF0340E1502F3CF15F0140249
:101D9000F3CF14F0F45015267C0E14260D0E1522E8
:101DA00014C0DEFF15C0DDFF06D0020EDB2A030ED5
:101DB000D9E3DB2AD7D7CFECA6F003E10201200E4E
:101DC00007D056ECA4F008E1E6ECA5F00201120EF3
:101DD0000F6FF36AF46ACED052ECA2F001E082D029
:101DE000040EDB50520A6DE0200A6BE0330A23E058
:101DF000200A21E0160A05E0200A03E043EC9FF0E8
:101E0000A7D07FECA3F079EC9DF001E0A1D0B9EC74
:101E1000A2F001E09DD054ECA7F002E043EC9FF06B
:101E2000070EDB5001E094D0C6EC9CF005ECA3F06B
:101E300001E08ED083D045EC9CF0120E19EC9CF0A2
:101E40002BECA3F023E07FECA3F036ECA4F054ECF1
:101E5000A7F002E043EC9FF0070EDB5001E078D0E2
:101E6000C6EC9CF0DB5004E002011A0E0F6F0AD0A2
:101E700045EC9CF0B8ECA6F0B10EE66E020EE66EF4
:101E800089ECA3F005ECA3F063E158D07FECA3F05C
:101E900079EC9DF05DE1B9ECA2F05AE154ECA7F0C9
:101EA00002E043EC9FF0070EDB5052E1C6EC9CF0E1
:101EB000DB5003E002011A0E0F6F05ECA3F048E1BE
:101EC0003DD07FECA3F036ECA4F0720E6EEC9CF0EB
:101ED00005ECA3F03DE106ECA6F03AE1BDECA6F07E
:101EE000EF8036D024EC9FF0B3D813EC9DF0040EB5
:101EF000DB5077080CE0040EDB50570808E0040EB6
:101F0000DB50610804E0040EDB5041081BE1EFECFC
:101F1000A5F0B9ECA2F01CE154ECA7F002E043EC10
:101F20009FF0070EDB5014E1C6EC9CF0DB5003E0A1
:101F300002011A0E0F6F05ECA3F00AE1BDECA6F04A
:101F4000EF8206D00B0E49EC9FF002010B0E0F6FD3
:101F50003EECA2F003E0BDECA6F0EF90070EDB50E4
:101F600005E0E6ECA5F0DE6ADD6A02D002010F6B47
:101F70001EEC9FF0080EE15C02E2E16AE552E16EC0
:101F80006AEF9CF0F6ECA6F023EC9CF08AEC9DF056
:101F90006AEF9CF0AAECA5F0150EDE6E020EDD6E67
:101FA00002010F6B3EECA2F003E00201180E28D0F4
:101FB00056ECA4F003E10201120E22D052ECA2F082
:101FC00003E002010B0E1CD006ECA6F003E00201B8
:101FD000130E16D0010EE66E7FECA3F0A3EC9DF07D
:101FE00009ECA2F037ECA6F06CDD166E050EE15E92
:101FF0001650000903E1F36AF46A05D00201010EEC
:102000000F6FF368F468020EE15C02E2E16AE552E8
:10201000E16E6AEF9CF065EC9CF00001F95101E083
:1020200031DB24ECA3F08AEC9EF00DECA5F012EC71
:102030009CF04DECA1F02DECA6F00001F36BF46BDD
:102040006AEF9CF0156A0FC2F3FF15C0F4FF12008F
:1020500044ECA4F05FECA5F06DECA5F066ECA5F007
:102060003DECA4F0340EDE6EDD6A28ECA0F083ECCB
:102070009EF0DECF16F0DDCF17F015501718E8AE42
:1020800002D0173402D018ECA2F01EE274ECA5F0D6
:10209000040EDB501624E96E050EDB501720EA6EA5
:1020A000EF50E66E83EC9EF0020EDB501424E96ED6
:1020B000030EDB501520EA6EE9EC9EF0060EDB2ADB
:1020C000070ED5E3DB2AD3D7080EE15C02E2E16A12
:1020D000E552E16E6AEF9CF0A6ECA4F0020EDB6A1A
:1020E000B7ECA3F043ECA5F07CEC9EF033EC9CF055
:1020F0001AEC9FF033EC9CF02BECA3F004E1150EEE
:102100001EECA0F04AD04AECA3F0EF0412E1E66A1C
:10211000F80EE66E0F0EE66EE66AE66A88ECA6F04A
:1021200030E1E86807182DE108502BE1095029E15A
:1021300025D04AECA3F0EF5002080FE157ECA1F0D4
:10214000E66AE66A88ECA6F01CE1E868071819E17F
:10215000085017E1095015E111D057ECA1F0E668DD
:102160000F0EE66E88ECA6F00CE1E868071809E1AE
:10217000E868081806E10F0E091803E1090E1EECC5
:10218000A0F0020EDB5009E133EC9CF0C8ECA2F0A9
:1021900010D874EC9CF048ECA1F0020EDB50146EE9
:1021A000030EE15C02E2E16AE552E16E14506AEF6F
:1021B0009CF065EC9CF0060EE126050EDB6A49EC0E
:1021C000A4F01DEC9CF02CEC9CF08DECA6F0010E24
:1021D00006C0DBFF020E07C0DBFF030E08C0DBFFFB
:1021E000040E09C0DBFF0001F95105E0B3ECA0F0DB
:1021F00002E0090E3BD00001F36BF46BFB510EE1E2
:102200003CECA6F0D1ECA2F0E66A44ECA6F003ECBC
:10221000D7F0C0ECA3F00001010EFB6FDF6AC7EC42
:10222000A6F0EF50DF5C20E2050EDB501DE1E66A10
:1022300044ECA6F0D950010F61EC9CF0EFCF14F004
:10224000EE2A000EEFCF15F0EE22EFCF16F0EE22C1
:10225000EFCF17F0EF22EDEC9EF0010803E0090E3E
:10226000A9ECA0F0DF2ADBD7050EDB50146E060EBA
:10227000E15C02E2E16AE552E16E14506AEF9CF023
:10228000D2ECA5F054ECA6F0010A04E0030A02E047
:10229000010A17E00CECA4F041EC9DF00BE049ECD6
:1022A000A4F0010EEE180DE1EE500BE1EE5009E145
:1022B000EE5007E10CECA4F0DBCF17F0C7ECA4F074
:1022C00031D024ECA3F0EECF20F0EECF21F0EECF12
:1022D00022F0EFCF23F0C7ECA6F0EFCF1CF01D6A81
:1022E0001E6A1F6AF90EDBCF18F0FA0EDBCF19F069
:1022F000FB0EDBCF1AF0FC0EDBCF1BF0020E185EDC
:10230000000E195A1A5A1B5A54EC9EF002502024FF
:10231000146E03502120156E04502220166E0550B5
:102320002320176E1DEC9EF08AEC9FF002E2E16A1A
:10233000E552E16E6AEF9CF0D2ECA5F002010F6B62
:10234000FC0EDB50D80B1EE112EC9CF091ECA4F0DB
:1023500042ECA2F063ECA3F0020EF3CFDBFF030E1E
:10236000F4CFDBFFD950020F4FECA3F003E10201E1
:102370001B0E21D0AFEC9CF058ECA3F0EF50080BF3
:1023800003E002011F0E17D012EC9CF02A0E8AEC1B
:10239000A2F01450100B04E0FC0EDB50100902D028
:1023A000FC0EDB505BECA3F0CBEC9EF0B2ECA3F0A8
:1023B00005E10201090E36ECA2F002D0F36AF46ADC
:1023C000040EE15C02E2E16AE552E16E6AEF9CF024
:1023D00065EC9CF01A0EDEEC9EF012EC9EF0080EFE
:1023E000DB6A170EDB6A180EDB6A7AECA3F0010BCE
:1023F00005E102011D0E0F6F090E0AD012ECA7F0C5
:1024000001E1D7D03EECA2F008E00201180E0F6FF8
:10241000F36E080EF3CFDBFFCCD00001FB6B90EC2A
:10242000A3F0ABECA1F04AEC9CF02EECA7F00F0E61
:10243000EECFDBFFC8ECA0F034ECA7F075ECA1F018
:1024400003E1F80EDB50151808E00001F95103E034
:10245000B3ECA0F06BE13CEC9FF0D9500B0F61ECBA
:102460009CF00001F551EE1808E1F651EE1805E177
:10247000F751EE1802E1F851EE180FE0F95103E0C0
:10248000B3ECA0F053E165ECA6F00B0FA7ECA2F0C3
:1024900002E1E0ECA1F0ACEC9FF096ECA4F0130E9E
:1024A000EECFDBFF140EEECFDBFF150EEECFDBFF22
:1024B000160EEECFDBFF080EDB5001E0BAD0D6ECF3
:1024C0009CF0F0ECA0F001E3B4D0B9EC9FF0D9504F
:1024D000130FE1ECA5F010E11550EE180DE11650C8
:1024E000EE180AE11750EE1807E106E14AEC9CF0FD
:1024F000160E19EC9CF0EF8404ECA5F0D2ECA3F0DE
:102500005DE11550EE185AE11650EE1857E11750DC
:10251000EE1854E153E1010EF36E190EF3CFDBFF19
:102520000001F95106E0B3ECA0F003E00201090E4E
:1025300026D01DECA2F019ECA6F01BE117501518DF
:1025400018E14AEC9CF04DECA1F07AECA3F0040BFE
:102550000BE004ECA0F056ECA0F0E76E080EE7CF1D
:10256000DBFF190EDB6A05D0DCECA3F0080EE7CF29
:10257000DBFF080EDB50150804E10201150E0F6F9A
:1025800018D0080EDB501AE134ECA7F03CEC9FF0B9
:10259000190EDB5011E0A1EC9CF0D1ECA2F0D95067
:1025A0000B0FA7ECA2F008E1E0ECA1F00001FAECBF
:1025B000A1F0F36AF46A5ED0ACEC9FF0080EDB5039
:1025C00001E079D7BFEC9CF0EF50E66E61ECA1F032
:1025D000DB2A0A0EDBCF15F001E3DB2AA1EC9CF02D
:1025E00021ECA1F0E9EC9EF0010EE76E2FECA4F0D7
:1025F000E7501426000E15229DECA1F0D9500F0FC4
:10260000B5ECA4F0D6EC9CF0EE06EE5AEE5AEE5A7B
:10261000170EDB2A180E01E3DB2A7AECA3F0040B79
:1026200004E0D950130FB5ECA4F00001010EF96FCE
:1026300042D7C2ECA6F0090EDBCFEEFF0A0EDFECAC
:10264000A4F00F0EDBCFEEFFD2ECA0F096ECA4F0DE
:10265000130EDBCFEEFF140EDBCFEEFF150EDBCF3C
:10266000EEFF160EDBCFEEFF170EDBCF08F0180ED5
:1026700066EC9EF01A0EE15C02E2E16AE552E16E60
:102680006AEF9CF044ECA4F0060EF3C0DBFF070EEB
:10269000F4C0DBFFA1EC9CF075EC9EF0A1EC9CF08B
:1026A000B8ECA6F0040EDBCFE6FF050EDBCFE6FFAD
:1026B0008DECA6F062ECA0F0A1EC9CF00A0E62ECAE
:1026C000A7F01450DE261550DE221650DE221750D9
:1026D000DD22DD52DD52E66ABFEC9CF0D1ECA2F0C7
:1026E000D6EC9CF01DEC9CF00CECA0F002E1090E85
:1026F00003D00001F96B000E146E080EE15C02E2DB
:10270000E16AE552E16E14506AEF9CF0F6ECA6F037
:10271000EECF16F0EECF17F0EECF18F0EFCF19F0A6
:102720005DECA6F01650EE1808E11750EE1805E122
:102730001850EE1802E11950EE1802E0000E01D018
:10274000010E146E156A14BE1568EAECA5F06AEF66
:102750009CF065EC9CF0150EDEEC9EF006C014F0CB
:1027600007C015F012EC9EF0120EDB6AC9ECA5F062
:1027700002010F6B90ECA3F0100EEECFDBFF110EF9
:10278000EDCFDBFF4AEC9CF00E0EABECA3F07AEC45
:10279000A3F0020B02E11E0E08D00001F95107E080
:1027A000B3ECA0F004E00201090E0F6F2ED075EC1F
:1027B000A1F003E1F80EDB5015182CE0100EDBCF72
:1027C00016F0110EDBCF17F0186A196AA1EC9CF015
:1027D00067ECA7F01650EE1808E11750EE1805E167
:1027E0001850EE1802E11950EE1814E03CEC9FF07E
:1027F00044ECA7F065ECA6F00C0FA7ECA2F008E102
:102800000201080E0F6F22ECA2F0F36AF46A95D071
:10281000C2EC9FF012ECA7F001E179D01AECA4F021
:10282000DBCF17F096ECA4F01450EE180DE1155024
:10283000EE180AE11650EE1807E11750EE1804E101
:1028400003E102013D0E34D0100EDBCF14F0110E67
:10285000D2ECA3F033E11550EE1830E11650EE182B
:102860002DE11750EE182AE129E1FFECA1F019EC57
:10287000A6F012E1175015180FE14AEC9CF04DEC50
:10288000A1F0DCECA3F0120EE7CFDBFFDB5004E09D
:1028900002010F0E0F6F3BD044ECA7F03CEC9FF011
:1028A00065ECA6F00C0FA7ECA2F006E10201080E01
:1028B0000F6F22ECA2F02BD0C2EC9FF0100EDBCFFA
:1028C00014F0DB2A110EDBCF15F001E3DB2AA1ECBB
:1028D0009CF021ECA1F0EF50E66EBFEC9CF0E9EC2F
:1028E0009EF0040EDB2A050E01E3DB2AD950080F07
:1028F000B5ECA4F0130EDB2A140E01E3DB2AD6ECB0
:102900009CF0EE06000EEE5AEE5AEE5A83D7C2EC59
:10291000A6F0100EDBCFEEFF110EDFECA4F089EC79
:10292000A0F00A0EDBCFEEFF0B0EDBCFEEFF130E97
:10293000DBCF08F0140E66EC9EF0150EE15C02E2AF
:10294000E16AE552E16E6AEF9CF065EC9CF02A0EBC
:10295000E1260D0EDB6AA1ECA4F00C0EA9ECA0F0B0
:10296000060EDB6A2CEC9CF036ECD7F0E552E55213
:10297000F3CFD7F2F4CFD8F27DECA1F0F350145C92
:10298000F450155801E29FD112EC9CF0EF502E0844
:1029900001E199D112EC9CF0EF5001E194D1D950B2
:1029A000100FD56FDACFD6F2EFECA5F07DECA1F0E9
:1029B000D751145CD85115581CE276ECA3F0FD0EEB
:1029C000DB501424E96EFE0EDB501520EA6EEF504A
:1029D000E66E050EDB50D5250F01E96E060E9BEC69
:1029E000A4F0E9EC9EF0050EDB2A060EDFE3DB2AFD
:1029F000DDD7FA0EDBCFE6FF73D9E55248ECA1F044
:102A0000070E27ECA2F001E15ED1030ED7C2DBFF77
:102A1000040ED8C2DBFF020EDB04060E27ECA2F088
:102A200001E14AD10D0EDB5001E046D11DECA2F0D0
:102A300004ECA5F06DECA0F0E8AE02D0173402D0A3
:102A400018ECA2F02CE2F6EC9EF012E17BECA5F083
:102A5000090EDB50165C146E0A0EDB501758156E0B
:102A6000E83404E214500408000E155401E22BD19E
:102A7000090EDBCF18F00A0EDBCF19F0193406E28D
:102A800018500808000E195401E21DD1F6EC9EF012
:102A900006E0090EDB2A0A0ECBE3DB2AC9D70D0EAE
:102AA000DB5001E009D133EC9CF07AECA6F0E9CFE1
:102AB000DEFFEACFDDFFEFECA5F076ECA3F0D890D7
:102AC000155004E60B0E145C000E15580CE222ECB7
:102AD000A7F093EC9DF0200EEF6E050EDB2A060E9C
:102AE000ECE3DB2AEAD7090EDBCF08F00A0EDBCFD6
:102AF00009F00B0E08C0DBFF0C0E09C0DBFF0E0E49
:102B0000D5C2DBFF0F0ED6C2DBFF050EDB6A28EC59
:102B1000A0F0080EDB6A070EDBCF14F0080EDBCF47
:102B200015F0D890155004E6080E145C000E1558E8
:102B30004CE2F9ECA5F0DBCF17F082ECA5F01750D2
:102B40001918E8AE02D0193404D01850165C195088
:102B500017583BE222ECA7F03EECA0F030E0F9EC95
:102B6000A5F0CFEC9FF089ECA5F0E9EC9EF0070E04
:102B7000DBCF15F0080EDBCF16F04AECA0F0E8AE84
:102B800002D0E73402D0E750145C14E3070EDBCF29
:102B900018F0080E58EC9FF0E8AE02D0173403D0BE
:102BA000E750D880175406E3200E166E89ECA5F086
:102BB0001650EF5E070EDB2A080E01E3DB2A050E36
:102BC000DB2A060EA8E3DB2AA6D70B0EDBCF14F018
:102BD0000C0E6DECA0F0E8AE02D0173402D018EC69
:102BE000A2F06AE20B0EDB2A0C0E01E3DB2A080ED0
:102BF000F36E090EF3CFDBFF0A0EDB6A04ECA5F0DF
:102C0000DBCF15F0D890155004E60B0E145C000EC7
:102C1000155852E22CECA2F0DBCF17F0030EDBCFFD
:102C200018F0040EDBCF19F017501918E8AE02D0D7
:102C3000193404D01850165C195017583DE20B0E89
:102C4000DBCF14F00C0E3EECA0F030E02CECA2F048
:102C5000CFEC9FF004ECA5F093EC9DF0E9EC9EF036
:102C600031EC9FF04AECA0F0E8AE02D0E73402D09D
:102C7000E750145C16E3090EDBCF18F00A0E58EC8F
:102C80009FF0E8AE02D0173403D0E750D880175435
:102C900008E3200E166E04ECA5F093EC9DF01650A0
:102CA000EF5E090EDB2A0A0E01E3DB2A0B0EDB2A9C
:102CB0000C0EA4E3DB2AA2D7060E27ECA2F003E059
:102CC0000D0EDB0402E1000E01D0010E146E2A0E7F
:102CD000E15C02E2E16AE552E16E14506AEF9CF0B9
:102CE00065EC9CF0050EE126030EDB6A02010C0E7A
:102CF000D880D755000ED85503E2060EDF6E01D0FE
:102D0000DF6A010EDB6A020EDB6AE7ECA1F002016A
:102D1000D751145CD851155801E383D0010EDB5014
:102D2000D5250F01E96E020E9BECA4F03AECA2F05F
:102D3000200EF36E040EA8EC9DF004E2040EDB50AE
:102D4000050827E1040EDB50220823E0040EDB50C7
:102D50002F081FE0040EDB503A081BE0040EDB5086
:102D60003C0817E0040EDB503E0813E0040EDB5075
:102D70005C080FE0040EDB507C080BE0FE0EDB501D
:102D80000AE1040EDB502A0804E0040EDB503F0881
:102D900002E1070E47D0060EDF5C3CE0040EDB507C
:102DA00020081FE0040EDB502B081BE0040EDB5054
:102DB0002C0817E0040EDB503B0813E0040EDB5038
:102DC0003D080FE0040EDB505B080BE0040EDB5007
:102DD0005D0807E0040EDB502E0805E1030EDB045E
:102DE00002E1060E16D0040EDB502E0805E1010E9E
:102DF000F36E030EF3CFDBFFDF040CE0610EF36E26
:102E0000040EA8EC9DF006E3040EDB507A0802E302
:102E1000010EDF6E010EDB2A020E01E276D7DB2AFD
:102E200074D7DF50146E050EE15C02E2E16AE552F0
:102E3000E16E14506AEF9CF065EC9CF00F0EE126F9
:102E400049ECA4F0E6ECA0F00E0EEECFDBFF12ECA6
:102E50009CF0CEECA1F0F70EDBCF08F0F80EDBCF44
:102E600009F0085001E109501BE0020E081801E1C9
:102E700009500EE0010E081813E1095011E124EC8D
:102E8000A3F023EC9CF0D9500B0F54ECA3F008D026
:102E9000DCEC9FF05DECA6F07DEC9FF0D5EC9DF0B6
:102EA0000001F95106E0B3ECA0F003E00201090EC5
:102EB00011D1CCECA2F04CEC9DF08EECA2F0C0EC69
:102EC000A1F090ECA0F05DECA6F04CEC9DF05DEC78
:102ED0009DF0D9500B0F61EC9CF011ECA1F003E2D6
:102EE00002011F0EF7D01FECA3F0EF9424ECA3F027
:102EF0000B0EDBCFEEFF0C0EDBCFEEFF0D0EDBCFAC
:102F0000EEFF0E0EDBCFEEFF9CEC9DF067ECA7F022
:102F100023EC9CF02AECA1F00B0EDBCF06F00C0E9C
:102F2000DBCF07F00D0EDBCF08F00E0EA5ECA0F006
:102F300062ECA0F0DCEC9FF09CEC9DF067ECA7F05D
:102F400008ECA1F033ECA1F0DFCF0BF0010EDBCFEA
:102F50000CF0020EDBCF0DF0030E8FEC9EF0D5ECE3
:102F60009DF012EC9CF00C0E19EC9CF00B0EDBCFDC
:102F7000EEFF0C0EDBCFEDFF27ECA7F0EFCF14F048
:102F8000156A166A176A2AECA1F0DFCF06F0010E67
:102F9000DBCF07F0020EDBCF08F0030EA5ECA0F0AC
:102FA00000EC9DF0D6EC9CF0EEEC9CF027ECA7F04A
:102FB000EFCF1CF01D6A1E6A1F6A33ECA1F0040EED
:102FC000DBCF0BF0050EDBCF0CF0060EDBCF0DF0E8
:102FD000070E8FEC9EF01DEC9EF058ECA6F0DFCFB4
:102FE000EEFF010EDBCFEDFF40ECA6F0F0ECA0F021
:102FF00048E286ECA7F02CEC9CF004EC82F074EC38
:103000009CF0E76E0A0EE7CFDBFFDB503AE00A0EDA
:10301000DB503C0833E11FECA3F0EF50010B17E04D
:103020002DECA6F040ECA6F0010EEE1805E1EE50F6
:1030300003E1EE5001E1EE5002E048ECA6F0E66A52
:103040002CEC9CF056ECA0F000091BE017D02DEC06
:10305000A6F048ECA6F0DB5011E19CEC9DF0180EB8
:1030600062ECA6F00C0E41ECA3F027ECA7F0EF0405
:10307000E66E58ECA6F052ECA1F003D002010F0E60
:1030800029D08EECA2F0D9DBD5ECA1F017ECA4F09E
:10309000C9DB0A0E8AECA2F0C1ECA0F040ECA6F06D
:1030A000DF50EE26010EDB50EE22020EDB50EE2248
:1030B000030EDB50EE220001F36BF46BFB6B9CEC18
:1030C0009DF0D1ECA2F0D950040FA7ECA2F005E1DD
:1030D00002011B0E36ECA2F010D0040EDBCFF5F08F
:1030E000050EDBCFF6F0060EDBCFF7F0070EDBCFD9
:1030F000F8F002010F6BF36AF46A0F0EE15C02E272
:10310000E16AE552E16EE6D3D9CFE6FFE1CFD9FF20
:103110000E0EE126FC0EDBCFF6FFFD0EDBCFF7FF38
:10312000FE0EDBCFF8FF0D0EDB6A0D0EDB50146ECA
:10313000156A0D0E145C000E155812E20900D9CF65
:1031400014F0DACF15F00D0EDB500F011424E96EE8
:10315000000E1520EA6EF5CFEFFF0D0EDB2AE5D746
:10316000FA0EDBCFE6FFFB0EDBCFE6FFD9CFE6FFA3
:10317000DACFE6FFEFEC8DF0E552E552E552E5528D
:1031800000D00E0EE15C02E2E16AE552E16EE5522A
:10319000E7CFD9FF120099DB100EE1260D0EDB6A96
:1031A000DBCF16F0176A186AD950FC0F74EC9DF04B
:1031B000A0EC9EF00D0EDB500F01D924AEECA0F078
:1031C000E9EC9EF0D9CF14F0DACF15F00D0EDB50FC
:1031D000D924AEECA0F0EF5003E00D0EDB2AE0D7CF
:1031E0000D0EDB6A020EF36E0D0EA8EC9DF018E2D8
:1031F0000D0EDBCF16F0176A186A49ECA4F0A0ECAC
:103200009EF0D9500E0F146EDACF15F00D0EDB5074
:103210001424AEECA0F0E9EC9EF00D0EDB2AE2D710
:10322000D9500E0F70ECA6F0CBEC9EF09AEC8EF01D
:1032300013EC9DF0100EE15C02E2E16AE552E16EF2
:1032400049D3D9CFE6FFE1CFD9FF0E0EE126FC0E20
:10325000DBCFF6FFFD0EDBCFF7FFFE0EDBCFF8FF77
:103260000D0EDB6A0D0EDB50146E156A0D0E145C2C
:10327000000E155812E20900D9CF14F0DACF15F07C
:103280000D0EDB500F011424E96E000E1520EA6EBE
:10329000F5CFEFFF0D0EDB2AE5D7D9CFE6FFDACF6A
:1032A000E6FFCAEC8FF0E552E55200D00E0EE15C6D
:1032B00002E2E16AE552E16EE552E7CFD9FF120082
:1032C00004DB190EE1261DECA2F0FEECA5F00001D6
:1032D000FB6B54ECA6F0020A35E0030A1CE0020A7C
:1032E00031E169DB040EB6DBDF6A110EDB680EEC40
:1032F000A2F00F0EF36E140EF3CFDBFFF80EB0EC5E
:10330000A4F0160EDB68170EDB680F0EF36E180EB6
:10331000F3CFDBFF23D04FDB030E9CDB31ECA7F0B8
:10332000010FC5ECA3F01450DF6ED950010FC9DABC
:103330003BEC9EF066EC9FF00F0EF36E160EF3CF93
:10334000DBFF08D038DB020E85DBDF6A66EC9FF01E
:10335000160EDB68170EDB6A180EDB6A5CECA4F055
:10336000010EDBCF06F0020EDBCF07F0030EDBCF42
:1033700008F0040E7FECA6F0BFEC9DF0A2ECA3F0E9
:10338000010F9FDAFAECA0F0050F9BDA0001EE5175
:10339000EE184CE1EF51EE1849E1F051EE1846E11C
:1033A000F151EE1843E142E16EECA7F05BE054EC22
:1033B000A6F0020863E04DECA2F0EF0401E08DD02E
:1033C00070DAB1EC9EF006E08FECA5F03BEC9EF0DD
:1033D000E706FCE10DECA3F0E7ECA1F0030EDBCF78
:1033E00016F0040E4EDB12E10001F25103E069EC2D
:1033F000A3F02DE12DECA0F031ECA7F0050FE5ECEA
:10340000A4F020E0E5EC9FF0EEECA1F04ADABEEC8F
:103410009EF006E002EC9FF05CE0E1DBFEE159D0BB
:10342000A5ECA6F056E0DBDBFEE153D0F25103E061
:1034300069ECA3F00CE12DECA0F0D950050FA7EC3E
:10344000A2F00BE10001EE69EF69F06BF16B110E78
:10345000DBCF14F065ECA1F05ED0E5EC9FF06EECF4
:10346000A7F008E11EDA51ECA4F034DB0C0EEECF2D
:10347000DBFF33D054ECA6F002080DE112DA51EC78
:10348000A4F03FDA090E14C0DBFF0A0E15C0DBFF03
:10349000FEECA5F022D04DECA2F0EF041EE101DA23
:1034A000B1EC9EF005E08FECA5F0E5DBE706FDE171
:1034B0000DECA3F0F6D9BEEC9EF006E002EC9FF016
:1034C00008E08DDBFEE105D0A5ECA6F002E087DB8D
:1034D000FEE1D950090F54ECA3F0150EDBCF14F028
:1034E000160EDBCF15F0170EDBCF16F0180EDBCF64
:1034F00017F0D950090FE5D9E4DA07E3D950150FD1
:10350000E0D9E8DA0C0EEECFDBFF04ECA5F0DBCF60
:1035100015F02CECA2F0DBCF17F0FCDA190EE15C11
:1035200002E2E16AE552E16ED5D1CFD9130EE12670
:103530006EECA7F00EE054ECA6F002080AE04DECA9
:10354000A2F0EF0406E00668076808680F0E096E2F
:1035500062D154ECA6F0010A0EE0030A0CE0010A65
:103560000AE10F0EDB68100EDB68110EDB680F0E30
:1035700022ECA2F008D00F0EDB68100EDB68110EF3
:10358000DB6A120EDB6A0001FB6BF40EDB5011E00C
:103590006FEC9FF001ECA4F0EF50DF5C07E2E7EC8A
:1035A000A3F001E1F4D096ECA6F0F4D70001F26BA1
:1035B0002ED154ECA6F0020A16E0030A05E0020A36
:1035C00012E1F9D9040E11D0F6D9030E5DDB9CDAB5
:1035D000030FC5ECA3F0010E14C0DBFFD950030F9D
:1035E00070D949DB04D0E7D9020E4EDBDB6A5CEC14
:1035F000A4F0030EDBCF06F0040EDBCF07F0050EC0
:10360000DBCF08F0060E7FECA6F0CFDAA2ECA3F039
:10361000030F57D9FAECA0F00B0F53D90001EE516C
:10362000EE1808E1EF51EE1805E1F051EE1802E155
:10363000F151EE181CE0F25110E06FEC9FF001EC3C
:10364000A4F0EF50DF5C07E2E7ECA3F001E19FD0CC
:1036500096ECA6F0F4D70001F26B2DECA0F0D95057
:103660000B0FA7ECA2F001E18DD0F2EC9FF06EEC15
:10367000A7F025E180ECA1F0E66E3BD9AADBFCECDB
:10368000A6F0B4DAFEE135D9010E96ECA5F0166885
:10369000176AD95084ECA3F0100EA8DAFEE129D9FC
:1036A000020E96ECA5F0166A0F0E176ED95084EC38
:1036B000A3F0180E9BDAFEE11CD9030E0ED054ECD9
:1036C000A6F002080EE115D9F50EDBCFEFFFFCECFA
:1036D000A6F08CDAFEE10DD9010EABD814C0EFFFD5
:1036E00093D04DECA2F0EF0401E08ED0EDECA4F00D
:1036F0001BE00F0E09DA84ECA3F0040E1F0B02E0AE
:103700006EDAFEE1020EDB500F0B196A1A6A1B6AB1
:10371000E8501412195015121A5016121B50171295
:10372000020E14C0DBFF04D080ECA1F048ECA1F045
:10373000E0D8020EDBCFEFFF31ECA7F0030F59EC1E
:10374000A7F0030E14C0DBFF040E15C0DBFF050E4F
:1037500016C0DBFF060E17C0DBFF030EDBCF14F035
:10376000040EDBCF15F0F9ECA5F08BD917E169EC6D
:10377000A3F00DE12DECA0F031ECA7F00B0FE5EC80
:10378000A4F008E10001EE69EF69F06BF16BF1DB89
:10379000C1D941D0F2EC9FF0EEECA1F0EDECA4F039
:1037A00010E0F50EDBCF14F0F60EDBCF15F0F70EC0
:1037B000DBCF16F0F80EDBCF17F0040E17DAFEE1C0
:1037C0001CD0F50EF60EDBCF19F0F70EF80E19C06F
:1037D00014F0176A0F0E1416156A166A176A020E8D
:1037E000DB50F00B1D6A1E6A1F6AE85014121D5050
:1037F00015121E5016121F501712020E14C0DBFFB6
:1038000078D8020EDBCFEFFF0001010EF26F066ADF
:10381000076A086A096A130EE15C02E2E16AE5528E
:10382000E16E58D0FD0EDBCFE9FFFE0EDBCFEAFFE5
:103830001200E926000EEA221200EECFE6FFEECFDC
:10384000E6FFD1EFA2F0EECF14F0EECF15F0EECF01
:1038500016F0EFCF17F01200FD0EDBCFE6FFFE0EE5
:10386000DBCFE6FF1200FB0EDBCFE9FFFC0EDBCF68
:10387000EAFF12000D0EDBCFE9FF0E0EDBCFEAFFF1
:10388000120014C0EEFFF5EFA4F0DECFE9FFDDCFAC
:10389000EAFF1200F70EDBCFE9FFF80EDBCFEAFFFD
:1038A0001200010EDBCFE9FF020EDBCFEAFF1200B0
:1038B000EE501426EE501522EE501622EE5017222E
:1038C0001200E96EDACFEAFF1200D9CFE6FFE1CFAE
:1038D000D9FF1200E552E7CFD9FF1200EEECA3F0BA
:1038E00050EC81F002EFA7F0146E060EE15E14506A
:1038F0001200030EDBCFE9FF040EDBCFEAFF51EF2E
:10390000A4F0EECF14F0EFCF15F01200070EFCEC90
:10391000A4F0F3CF14F0F4CF15F0F3CFE6FFF4CF1B
:10392000E6FF080EFCECA4F0E552E7CF15F0E552F7
:10393000E7CF14F0F3CF16F0F4CF17F0F3501418CC
:103940001200060EDBCFE9FF070EDBCFEAFF120005
:10395000FB0EDBCFE6FFFC0EDBCFE6FF1200020E14
:10396000DBCFE9FF030EDBCFEAFF1200EE501416A7
:10397000EE501516EE501616EE5017161200040EE5
:10398000DBCFE9FF050EDBCFEAFF1200020EE66E89
:103990008BECA4F037ECA6F01CEC97F0146E080E3C
:1039A000E15E1450070EF3CFDBFF1200D9CFE9FF21
:1039B000DACFEAFF1200F90EDBCF06F0FA0EDBCF0A
:1039C00007F0FB0EDBCF08F0FC0EDBCF09F0120096
:1039D00090ECA7F089ECD1F0DCEFA5F0EECF18F079
:1039E000EECF19F0EECF1AF0EFCF1BF0120014500B
:1039F000EE261550EE221650EE221750EE2212003F
:103A0000040E06C0DBFF050E07C0DBFF060E08C074
:103A1000DBFF070E09C0DBFF120087DD146E0B0E03
:103A2000E15E14501200E552E552E552E5521200F3
:103A3000080EDBCF15F0090EDBCF16F00A0EDBCF38
:103A400017F00B0EF0EFA6F0E924E96E000EEA2065
:103A5000EA6E12009DECA5F0010E02C0DBFF020E23
:103A600003C0DBFF030E04C0DBFF040E05C0DBFF59
:103A70001200010EE66E8BECA4F0E66AE66AE66AD6
:103A80001200DBCF17F0145015101610171012008B
:103A90002EECA5F035EFA5F04AECA5F0A3EFA5F0CC
:103AA000E552E7CF18F0E552E7CF17F0E552E7CF40
:103AB00016F0E552E7CF15F012002FECA4F074EFEA
:103AC000A5F01450EE5C1550EE581650EE581750F5
:103AD000EE581200090EEECFDBFF0A0EEECFDBFF31
:103AE0000B0EEECFDBFF1200E96EFF0EDA20EA6E5E
:103AF000120036ECA4F0010EEEECA3F061EC8DF0B8
:103B000002ECA7F0DB501200146E156A166A176AF1
:103B1000D950120014C006F015C007F016C008F006
:103B200017C009F01200DBCF15F0DE501424E96E47
:103B3000DD501520EA6E1200080EDBCFE9FF090EFA
:103B4000DBCFEAFF1200E9CF14F0EACF15F0120044
:103B5000DBCFF4FFF350F45C1200F36E0C0EF3CFE6
:103B6000DBFF12000C0EDBCF14F00D0EDBCF15F0D7
:103B70000E0EDBCF16F00F0EDBCF17F01200050E86
:103B800014C0DBFF060E15C0DBFF070E16C0DBFFFF
:103B9000080E17C0DBFF1200A3ECA5F0080EEECF55
:103BA000DBFF090EEECFDBFF12000B0E14C0DBFFB4
:103BB0000C0E15C0DBFF0D0E16C0DBFF0E0E17C07E
:103BC000DBFF12001806195A1A5A1B5A18501416FD
:103BD000195015161A5016161B5017161200D890A9
:103BE0001436153616361736E8061200D8901732F6
:103BF000163215321432E806120023EC87F0C0EFBB
:103C0000A3F0020EDBCF14F0030EDBCF15F0120091
:103C1000EECFDEFFEDCFDDFF120014C0EEFF15C0CA
:103C2000EDFF120006C0DFFF010E07C0DBFFBBEC9B
:103C3000A3F05FECA5F03DEFA4F014C0DFFF010E90
:103C400015C0DBFF020E16C0DBFF030E17C0DBFF43
:103C5000120018C00BF019C00CF01AC00DF01BC0F8
:103C60000EF012000BC2EEFF0CC2EEFF0DC2EEFF13
:103C70000EC2EEFF1200D890030EEB32020EEB32B2
:103C8000010EEB32EF3212009DECA5F0030E02C0E4
:103C9000DBFF040E03C0DBFF050E04C0DBFF060ED6
:103CA00005C0DBFF010E120018C006F019C007F0B6
:103CB0001AC008F01BC009F01CC00BF01DC00CF0AE
:103CC0001EC00DF01FC00EF0B7EFD9F0DBCF09F02A
:103CD000FB0EDBCF0DF0FC0EDBCF0EF022ECA5F0DF
:103CE00008C0F3FF09C0F4FF1200040EEECFDBFFA3
:103CF000050EEDCFDBFF120007C015F008C016F06F
:103D000009C017F01200060EDBCF14F0070EDBCF50
:103D100015F01200EE6AEE6AEE6AEE6A1200DBCF70
:103D20000EF0B7ECD9F00250185C146E035019581D
:103D3000156E04501A58166E05501B58176E120057
:103D4000EE501624F36EEE501720F46EEE5018204D
:103D5000F86EF4CFF7FFF3CFF6FF0800F550E66EEC
:103D6000120051ECA4F0EFCF14F0090E14C0DBFFE9
:103D70000A0EDB6AFEECA5F0DF50120051ECA4F055
:103D8000EFCF14F00D0E14C0DBFFA1ECA4F0100E69
:103D9000DB6ADF501200D9CFE6FFDACFE6FF120070
:103DA000ABECA4F018C00DF019C00EF013ECDAF073
:103DB00004C016F005C017F0050E1200E12666ECEF
:103DC000A5F0F90EDBCF0DF0FA0EDBCF0EF04CEFC5
:103DD000D6F0E552E750EF6E120090ECA7F0B9EC88
:103DE000D1F0186E070EE15E18501200090EDB507C
:103DF0000201D5250F01E96E0A0E9BECA4F0EF50ED
:103E00002E0812000D0EDBCF14F00E0EDBCF15F0D6
:103E10000F0EDBCF16F0100EDBCF17F0040E1F0BCA
:103E20001200080EDB68090EDB680A0EDB6A0B0E57
:103E3000DB6A120006C0EEFFF5EFA4F0DECF14F04F
:103E4000DDCF15F0EAEFA5F0490EE66E020EE66E44
:103E500037EFA6F0E40EE9260D0EEA22010EEF6E12
:103E60001200090EDBCF15F00A0EDBCF16F01200A0
:103E7000D950020F70EFA6F0F70EDBCFF3F0F80E7B
:103E8000DBCFF4F0120002011F0E0F6F070EDB688C
:103E90001200F36E070EF3CFDBFF120006C0DFFF48
:103EA000010E07C0DBFF6DECA5F0065015181200DF
:103EB000DBCF19F0DE501824E96EDD501920EA6ED0
:103EC000EFCF17F07A0EE76E17181200110EDB68AD
:103ED000120EDB68C9ECA5F0F80EB0EFA4F0DF6AB3
:103EE000070EEEC0DBFF080EEFC0DBFF090EF0C0CF
:103EF000DBFF0A0EF1C0DBFF12001850EE5C146EFF
:103F00001950EE58156E1A50EE58166E1B50EE589A
:103F1000176E1200DECF06F0DECF07F0DECF08F01E
:103F2000DDCF09F0DD52DD52040EE15C1200EFCF6F
:103F300014F014C00EF0140EDBCF09F047ECDAF0E9
:103F4000140E05C0DBFF1200020E06C0DBFF030EDD
:103F500007C0DBFF3DEFA4F00B0EDBCFF5F00C0E3E
:103F6000DBCFF6F00D0EDBCFF7F00E0EDBCFF8F067
:103F700012001BECA5F0110EDBCF16F0120EDBCFFA
:103F800017F012000C0EDBCFF5F00D0EDBCFF6F0C4
:103F90000E0EDBCFF7F00F0EDBCFF8F01200DBCF09
:103FA00017F00E0EDB501624E96E0F0EDB501720B3
:103FB000EA6EEF50E66E120082ECA5F00D0EDBCF3C
:103FC0001AF00E0EDBCF1BF01200050EDBCFEEF069
:103FD000060EDBCFEFF0070EDBCFF0F0080EDBCFE5
:103FE000F1F012000B0EDBCFEEF00C0EDBCFEFF09A
:103FF0000D0EDBCFF0F00E0EDBCFF1F01200A5ECD2
:1040000094F0BEDB00091200E66AF70EDBCFE6FF94
:10401000F80EDBCFE6FF1200B9ECD1F0146E070EFC
:10402000E15E145000091200F36E060EF3CFDBFFC1
:104030001200F3CFDEFFF4CFDDFF1200F36E020EAD
:10404000F3CFDBFF1200E926010EEA22EF50120047
:10405000060EDB6A070EDB6A1200000EE66E0A0E21
:10406000E66E1200080EDB68090EDB680A0EDB68DC
:104070000F0EF36E0B0EF3CFDBFF1200DBCF15F04C
:104080000E0EDB501424E96E0F0EDB501520EA6E85
:10409000EF501200DE501524E96EDD501620EA6E56
:1040A000EFCF14F0610EE76E14181200C0EC8AF026
:1040B000E552E552E5521200EE2A000EEE22EE2203
:1040C000EE22120006C0DEFF07C0DEFF08C0DEFFE2
:1040D00009C0DDFFDD52DD521200DBCF15F07BECB5
:1040E000A5F015501718120004EC82F0DCECA5F0D6
:1040F000E76E0A0EE7CFDBFF1200ABECA4F008502E
:104100000F0B1200F90EDBCFE6FFFA0EDBCFE6FF56
:104110001200080EDBCFEEFF090EDBCFEEFF120020
:10412000060EDBCFEEFF070EDBCFEEFF1200FD0E1B
:10413000DBCF14F0FE0EDBCF15F01200F70EF36E9E
:104140000E0EF3CFDBFF0F0E1200DBCF09F0EFEF07
:10415000D9F0F36E050EF3CFDBFF1200E96E000E0F
:10416000DA20EA6E120042EC93F000091200EE50E1
:104170001826EE501922EE501A22EE501B22D9506A
:10418000120014C0DFFF010E15C0DBFFBBEFA3F070
:10419000100EEECFDBFF110EEECFDBFF120EEECFD7
:1041A000DBFF1200100EDBCFEEFF110EDBCFEEFFB8
:1041B000120EDBCFEEFF12001650EE24146E1750D5
:1041C000EE20156E14C0DEFFDD6E12000B0EEECF7A
:1041D000DBFF0C0EEECFDBFF0D0EEECFDBFF120090
:1041E000D880000EEE54000EEE54000EEE54000E79
:1041F000EE5412001450EE161550EE161650EE1630
:104200001750EE16D9501200EFCFDBFFDB50120033
:10421000EECF1CF0EECF1DF0EECF1EF0EFCF1FF073
:104220001200EE50145CEE501558EE501658EE5039
:104230001758120037ECA6F0C3EC85F0E552E552B2
:1042400012001450EE24E76E1550EE20EA6EE7CF10
:10425000E9FF120014C00BF015C00CF016C00DF0F1
:1042600017C00EF012001CC006F01DC007F01EC0E3
:1042700008F01FC009F01200EE58000EEE58000EB4
:10428000EE581200F80EF36E040EF3CFDBFF1200AF
:10429000E76E020EE7CFDBFF12000A0EEB6A0B0E91
:1042A000EB6A1200E552E750EE6EED6A1200E66A24
:1042B000F80EE66EE6681200040EDB6A050EDB6A95
:1042C0001200090EDBCF14F01200120EDBCF15F036
:1042D000130EDBCF16F0140E1200D9501D0F166E00
:1042E000DACF17F06C0EDB501200F3C014F0F4C0FC
:1042F00015F0F70EDB5014181200F8D90201120065
:10430000F50EDBCF14F0F60EF70EF80E1450120077
:10431000020EDBCF16F0030EDBCF17F01200110EEA
:10432000DBCFE9FF120EDBCFEAFF1200020EDBCF7C
:10433000EEFF030EDBCFEEFF1200040E14C0DBFF16
:10434000050E15C0DBFF1200020EDBCFE6FF030EE9
:10435000DBCFE6FF1200090EEECFDBFF0A0EEDCF3A
:10436000DBFF12000B0EDBCFE9FF0C0EDBCFEAFF09
:1043700012000A0EF3CFDBFF0B0EF4CFDBFF1200AF
:10438000040EDBCFEEFF050EDBCFEEFF1200060EB4
:10439000F3CFDBFF070EF4CFDBFF1200080EEECFEA
:1043A000DBFF090EEDCFDBFF1200080EDBCFE6FFCF
:1043B000090EDBCFE6FF1200D950360F70EFA6F0E2
:1043C00002011B0E0F6F080EF36EDB6E1200010E62
:1043D000DBCF14F0020EDBCF15F012000001EE2B44
:1043E000000EEF23F023F1231200020E145C000EE6
:1043F00015581200F569F669F769F8691200100E90
:10440000DB6A110EDB6A12001568166A176AD9504A
:104410001200E9CFE6FFEACFE6FF1200120EDB68DA
:10442000130EDB681200080EDB6A090EDB6A12004D
:104430001650145C175015581200090EDB6A0A0E4C
:10444000DB6A1200F36E120EF3CFDBFF1200146E64
:10445000020EDB50145C12000B0EDBCF16F00C0EBC
:104460001200065007100810091012000F6FF368B1
:10447000F4681200040EEFCFDBFF120088ECD1F0DD
:104480000009120012EC9CF02C0E19EC9CF023ECAD
:104490009CF075ECA6F041EF9CF012EC9CF0220E23
:1044A00019EF9CF045EC9CF0B10EEE6E020EED6E35
:1044B00045EC9CF0020E08ECA7F0060E08ECA7F005
:1044C000260EEB6A270EEB6A45EC9CF02A0E19ECDF
:1044D0009CF0200EEE6EED6A45EC9CF02C0E19EC73
:1044E0009CF032EC9EF045EC9CF0300E19EC9CF008
:1044F00032EC9EF0BCDB490EE66E020EE66EB2ECCC
:10450000A6F0010EE66EA0DC54EC80F074EC9CF09A
:104510000009120019EC9CF081EF9CF012EC9CF069
:10452000060E19EF9CF012EC9CF0E4DB0A0EDB5057
:104530000F0124EC9DF0070EEFCFDBFF33EC9CF076
:10454000D9DB0A0EDB5024EC9DF0080E120061EC62
:104550009CF0E5ECA6F0000912004AEC9CF0B8ECE7
:10456000A6F0060EDBCFE6FF070EDBCFE6FF8DEFF2
:10457000A6F0010EE66EE66A81ECA7F060EC88F02A
:1045800074EC9CF0E76E070EE7CFDBFFDB50120008
:104590001DEC9CF037EFA6F012EC9CF0020E19EF28
:1045A0009CF0EECFE6FFEFCFE6FF1200A3EC9DF00C
:1045B000020EDB500F0124EC9DF05CDFDBCFE6FF49
:1045C000E66A91ECD9F0E552E552040EF3CFDBFF39
:1045D00012EC9CF01B0E19EC9CF0060EDBCFF3FFE7
:1045E000DB2AF3500F0124EC9DF0040EDBCFEFFF2C
:1045F000020EDB2A12003AEC9CF0340E19EF9CF00C
:1046000089ECA7F016DDCFEFA6F0010EE76E33ECD4
:104610009CF0E7500ADB2B08120031ECA7F0010FE9
:1046200059ECA7F0010E14C0DBFF020E15C0DBFF32
:10463000030E16C0DBFF040E17C0DBFF120012ECE6
:104640009CF0160E19EF9CF012EC9CF02EEFA7F0E8
:1046500047DB2CEF9CF023EC9CF014501510161047
:104660001710120015C0E6FF16C0E6FF17C0E6FFE0
:104670001200DBCF14F0156A166A176A01DB58EFD7
:104680009CF019EC9CF00DEF9EF012EC9CF01C0ECF
:1046900019EF9CF045EC9CF0220E19EF9CF061ECB8
:1046A0009CF0EE50ED10120061EC9CF0F7EF9CF0E6
:1046B0000B0E19EF9CF0E66E12EC9CF02A0E19EC32
:1046C0009CF052EFA1F0CBEC9EF02CEC9CF016EF9E
:1046D000A7F039EC9DF02CEC9CF00DEC9DF031EF47
:1046E000A2F03AEC9CF0420E15EFA6F0ABDBDBCF6C
:1046F00015F012004AEC9CF0160E15EFA6F045ECF2
:104700009CF0260E19EF9CF0F50F74EC9DF0B6EFBF
:104710009CF060EC99F074EF9CF0210E19EF9CF086
:104720004AEC9CF0060EEECFDBFF070EEDCFDBFF71
:10473000C2EFA6F01C0E19EC9CF023EC9CF0BDDA45
:1047400041EF9CF099DA23EC9CF01406155A165AA6
:10475000175AD950120019EC9CF0080EEECFDBFF6F
:104760006AEF9DF02CEC9CF016DB0009120012ECB5
:104770009CF008EF9EF0020EDB6A030EDB6A12006B
:10478000146E050EE15E1450120061EC9CF0B6EF61
:104790009CF0C6DCBEDC010EE66E2CEC9CF086DCE8
:1047A00015081200DBCF15F0166A176AA1EC9CF011
:1047B0008EDB1450EE181200010EE66EE66AE66A11
:1047C00023DC04EC82F074EC9CF0E76E1200E66AE5
:1047D00044DCD950070FA0DB0CEFA0F0E66E81EFB0
:1047E000A7F0F80EADEC9DF00D0EDB681200BFECEB
:1047F0009CF0360E19EF9CF0BFEC9CF0520E19EFB6
:104800009CF012EC9CF0200E19EF9CF061EC9CF0F7
:10481000EE5002010B191200F90EDBCF14F0FA0E64
:10482000DBCF15F0FB0EDBCF16F0FC0E120075DAB5
:1048300000EF9DF0080EDBCF14F031EC9FF00B0E73
:10484000120001EC9EF0040EDBCF16F0050E1200F4
:1048500083EC9EF0080EDBCF16F0090E1200040E5A
:10486000DBCF14F0050EDBCF15F01200050EEECFF6
:10487000DBFF060EEDCFDBFF1200040E08C0DBFFEE
:10488000050E09C0DBFF120065EC9CF0080EE12666
:104890001200D950F90F74EF9DF033EC9CF081EFCA
:1048A0009CF0000EE9260A0EEA221200E66ADFD921
:1048B0002CEC9CF0FFEF9FF0DFD9EEEC9CF029EFA1
:1048C0009EF0010EE66ECFD948EF9DF0D950FB0F58
:1048D00074EC9DF01DEC9CF082EFA0F0B2EC9DF02A
:1048E000D950100F61EC9CF061EF9DF0D950100F82
:1048F00013DBA4EFA1F0160EDB50186E196A33EC2F
:104900009CF0D0EF9EF0A3EC9DF06C0EDB5024ECFD
:104910009DF0E9EF9EF0E66AE66AE66AE66AE66A14
:104920001200260E19EC9CF008EF9EF04AEC9CF069
:10493000120E19EF9CF0DB500201D6210F01EA6E36
:1049400012000E0EDB6A0F0EDB6A120065EC9CF0A3
:10495000030EE1261200EECF08F0EDCF09F01200B1
:10496000F36E150EF3CFDBFF120061EC9CF05CEFF1
:10497000A0F03AEC9CF0130E19EC9CF0EE50ED1008
:10498000120012EC9CF067DAF50EEE5C120090D982
:1049900058EF9CF0160E19EC9CF007C2EEFF08C20F
:1049A000EDFF120094DA09C2EEFF0AC2EDFF120019
:1049B000020E14ECA0F0070EDB6A13EFA2F0DBCFBF
:1049C000EDFF4AEC9CF02EEFA7F061EC9CF058EC68
:1049D0009CF0E8EC9CF00009120079EC9CF0020ECF
:1049E000EFCFDBFF010EDB50120015C0EEFF16C04B
:1049F000EEFF17C0EEFF1200DBCFE6FFE66A7DECAC
:104A0000D9F0E552E55212005CDC0A0E1200E126F4
:104A100012EC9CF0260E19EF9CF012EC9CF00C0EA0
:104A2000EB6A0D0EEB6A120045EC9CF0BE0EE92617
:104A3000010EEA2212000F0EDBCF14F0100EDBCFB6
:104A400015F0120013ECDAF008C014F009C015F0EC
:104A50001200AFEC9CF0220E15EFA6F023EC87F0CD
:104A6000166E050EE15E16501200F3CF14F0F4CF6F
:104A700015F0F350F4101200D6EC9CF01450EE1226
:104A80001550ED1212002CEC9CF01EEC8BF0E55250
:104A9000E5521200040EEECFDBFF050EEECFDBFF7A
:104AA000120045EC9CF0030E04ECA1F0E5081200A6
:104AB000AFEC9CF0E40EE9260D0EEA221200FD0E8A
:104AC000DBCF08F0FE0EDBCF09F01200FB0EDBCFD0
:104AD00008F0FC0EDBCF09F01200020E08C0DBFF6D
:104AE000030E09C0DBFF1200060EDBCF16F0070E27
:104AF000DBCF17F01200030EDBCF16F0040EDBCF76
:104B000017F012000B0EDBCF18F00C0EDBCF19F0F4
:104B10001200070EDBCF14F0080E93EF9DF0D95072
:104B2000090F61EC9CF0040EE76E120019EC9CF08A
:104B300014C0EFFF146A156A12000B6E0C6A0D6A3E
:104B40000E6AB7EFD9F0060EEECFDBFF070EEECF01
:104B5000DBFF120065EC9CF0020EE1261200F36E02
:104B60000A0EA8EF9DF033EC9CF07DEFA0F0D6ECA0
:104B70009CF061EF9DF0FF0E23ECA0F0AA0812005C
:104B8000010E15EFA6F0020E15EFA6F0030E15EFBD
:104B9000A6F0130EDB6A140EDB6A120041EC9CF0E7
:104BA0003AEF9CF065EC9CF0040EE126120065ECF7
:104BB0009CF00C0EE1261200186E060EE15E1850F5
:104BC000120061EC9CF01450EE181200AFEC9CF057
:104BD0002AEF9FF014C0F3FF15C0F4FF1200050E7A
:104BE000DB6A060EDB6A12000DEC9DF0E868061821
:104BF0001200050EDBCF16F0060E12000B0EDB6A5C
:104C00000C0EDB6A1200080E19EF9CF045EC9CF0CC
:104C10002A0E80DC1450100B120009C0DBFF4AEC96
:104C20009CF00A0E4FD9D950120019EC9CF0EF50AD
:104C300012004AEC9CF00A0E19EC9CF0EE2AEF22CE
:104C40004AEC9CF00A0E66DCA1EC9CF066DDEF50AD
:104C5000166E176AE850141812009EDC23EC9CF0C4
:104C60005DDC41EF9CF0A8EC9CF02CEF9CF0DECFDB
:104C7000E6FFDDCFE6FF120012EC9CF067EFA7F035
:104C8000D950040F61EF9CF012EC9CF0D1EFA2F030
:104C90005DEC9DF01406000E155A165A175A40D9AD
:104CA0002CEC9CF074EFA0F04DECA2F0EF50120051
:104CB00012EC9CF00A0E19EF9CF012EC9CF0120E14
:104CC00019EF9CF027DC12EF9CF00001FB6BA1ECCC
:104CD0009CF067DCD950120061EC9CF0C8EFA2F0A8
:104CE000E66E000EDA20E66E120012EC9CF0300E3A
:104CF00019EF9CF01B0E19EC9CF0A3EF9DF0F1D87E
:104D00000DDC58EF9CF0166A176A46DC58EF9CF0F1
:104D100033EC9CF03DDCF4EFA5F040EC91F074EF47
:104D20009CF042ECA2F0010EE66E1200DF2AADDC30
:104D300023EC9CF0D950070F54EFA3F0010EE66E60
:104D4000D950040F85DC48EF9DF00F0E84EC9DF0E8
:104D50000D0F1BDD080E1F0B120045EC9CF0A8DCAC
:104D6000030E120028EC90F013EC9DF0E66A12009E
:104D7000060E19EC9CF01DEF9CF045EC9CF0160E15
:104D800019EF9CF04AEC9CF00C0E19EF9CF012EC21
:104D90009CF08DEFA3F0F5EC85F013EF9DF0D6ECD1
:104DA0009CF0EE50ED10120078DD12EC9CF0260E17
:104DB00041EFA3F0AEDC50EC9DF04EEF9FF0CCEC59
:104DC000A2F08AEC9EF04DEFA2F01DEC9CF089EC75
:104DD000D1F074EF9CF0AFEC9CF09FDC97EF9FF06C
:104DE000DBCF18F03FDC18C0E6FF120065EC9CF04A
:104DF00002010F6B24EFA3F0146A04ECA2F084DC30
:104E0000080E1200BDDCE76E070EE7CFDBFF1200D5
:104E100019EC9CF08AEC9EF045EF9CF03AEC9CF08B
:104E200058EFA3F0D6EC9CF02BEFA3F029EC8DF01B
:104E300013EF9DF0D9500A0F4FEFA3F051EC9CF007
:104E400058EFA3F0050EDBCF14F0060E12009CEC19
:104E50009DF08DEFA3F0140E19EF9CF00E0E19EFDC
:104E60009CF0010E84EF9DF0ADECA2F00B0E06C09D
:104E7000DBFF0C0E07C0DBFF0D0E08C0DBFF0E0EC4
:104E8000CCDE0B0F54EFA3F0ADECA2F00C0E06C07D
:104E9000DBFF0D0E07C0DBFF0E0E08C0DBFF0F0EA1
:104EA000BCDE0C0F54EFA3F0770E6EEC9CF006EF17
:104EB000A6F061EC9CF058EC9CF0DEDEEEEC9CF091
:104EC000E2EF9DF08AECA2F0166A176A1200180E43
:104ED00019EF9CF0F7DE170E41EFA3F0E5DE0308B3
:104EE0001200A5ECA0F006C014F07CEF9EF0F4DEFA
:104EF0000DEC9DF08EEFA2F0D950060FEDDE89EF9C
:104F0000A3F0D950050FECDE37EFA6F0B9DE1DEFA8
:104F10009CF0A9DEFDEF9DF061EC9CF01DEF9CF094
:084F200014C0E6FF32EFA3F01C
:084F280076EFB8F01200F2B2BE
:104F3000F2924CEFBDF0F2A409D0F294D10ED76EEC
:104F4000200ED66E0101002B000E01231200D9CFD6
:104F5000E6FFE1CFD9FFFD0EDBCF14F0DB06FE0E3E
:104F6000DBCF15F001E2DB061450151002E0000063
:104F7000F2D7E552E7CFD9FF1200D9CFE6FFE1CF54
:104F8000D9FF020EE12600C1DEFF01C1DDFF0101F4
:104F9000DE50005D146EDD500159156EFD0EDBCF45
:104FA00016F0FE0EDBCF17F01650145C1750155894
:104FB00002E20000ECD7020EE15C02E2E16AE55297
:104FC000E16EE552E7CFD9FF1200D5ECB9F0FE0E45
:104FD000DB5015E08B7CFC0EDBCFE6FFFD0EDBCF5C
:104FE000E6FF4EECBAF08B7CFA0EDBCFE6FFFB0E51
:104FF000DBCFE6FF4EECBAF0FE0EDB06E8D7DAEFC9
:10500000B9F0D5ECB9F08B8CF8ECBBF04EECBAF003
:105010008B9CDAEFB9F06EECBCF0CE50DF6E010E77
:10502000CFCFDBFFDBCF16F016C017F0166ADF50CC
:105030001624146E000E172014C0F3FFF46E020E37
:10504000E15C02E2E16AE552E16EDAEFB9F00101FA
:10505000E85128E0010EE96F730EE66EB20EE66EBF
:10506000010E75ECBAF019E0AFECBBF0E851E66E5A
:10507000E66A840EE66E010EE66EE8EC91F0C6EC90
:10508000B9F0010EF31809E1155007E178ECBBF017
:10509000F350F41002E10101E96B0101826B836BB3
:1050A000036BE86B1200550EA76EAA0EA76E0E01D9
:1050B000BF6B060EC06F010EF76F8D940F01416B31
:1050C000900E9C6E240EA86E080E7C6E7D6A670E94
:1050D000AB6E1200D5ECB9F0FC0EDB500BE0A8A2D1
:1050E000FED7B4ECBBF001E3DB2AEF50A96EFC0E57
:1050F000DB06F2D7A8A2FED7000EDAEFB9F0D5ECA6
:10510000B9F0040EE1262CECBBF005E0A8A2FED716
:1051100053ECBCF0F8D727ECBBF010ECBAF0200E43
:10512000F4ECBBF022E200C1DEFF01C1DDFFA4BA56
:105130000AD0BCECBBF0640ED8801454000E155499
:10514000F6E2030E13D0020EDBCFE9FF030EDBCF36
:10515000EAFF620EE926010EEA22AACFEFFF020E55
:10516000DB2A030EDAE3DB2AD8D7000E146E040E16
:10517000E15C02E2E16AE552E16E1450DAEFB9F067
:105180006EECBCF02CECBBF005E0A8A2FED753EC13
:10519000BCF0F8D7F90EDB5021E000C1DEFF01C101
:1051A000DDFFA4BA0AD0BCECBBF0E80ED8801454E2
:1051B000030E1554F6E2030E12D0FA0EDBCFE9FF10
:1051C000DB2AFB0EDBCFEAFF01E3DB2AAACFEFFFEE
:1051D0000A0EAA5C03E0F90EDB06DCD7000E146EA3
:1051E000020EE15C02E2E16AE552E16E1450DAEF90
:1051F000B9F0D5ECB9F0210EE1263EECBCF0210E61
:10520000E15C02E2E16AE552E16EDAEFB9F0D5EC79
:10521000B9F0210EE1268B8C3EECBCF0200EE66E40
:105220005AECBCF06F0EE66EB20EE66E010E9EEC0E
:10523000B9F0690EE66EB20EE66E010E9EECB9F0A4
:10524000630EE66EB20EE66E010E9EECB9F0560EDF
:10525000E66EB20EE66E010E9EECB9F0500EE66EF2
:10526000B20EE66E010E9EECB9F0470EE66EB20E7F
:10527000E66E010E9EECB9F03E0EE66EB20EE66EE4
:10528000010E9EECB9F0350EE66EB20EE66E010E22
:105290009EECB9F02D0EE66EB20EE66E010E9EEC9F
:1052A000B9F0240EE66EB20EE66E010E9EECB9F079
:1052B0001B0EE66EB20EE66E010E9EECB9F0160EF7
:1052C000E66EB20EE66E010E9EECB9F0100EE66EC2
:1052D000B20EE66E010E9EECB9F0090EE66EB20E4D
:1052E000E66E010E9EECB9F0030EE66EB20EE66EAF
:1052F000010E9EECB9F0FA0EE66EB10EE66E010EEE
:105300009EECB9F0F50EE66EB10EE66E010E44ECC1
:10531000BCF0C4ECBCF08B9C210EE15C02E2E16AC3
:10532000E552E16EDAEFB9F0D5ECB9F0230EE126E3
:1053300084B20AD0010105B507D01DECBBF0640EA4
:10534000B3ECBCF01DECBBF0230EE15C02E2E16AC1
:10535000E552E16EDAEFB9F07ADE8D949494020EA4
:10536000656EF29EF19CF292F288C09E0300FF00EF
:10537000120012001200120012001EECD8F0E7EF2B
:10538000C3F012001E0EE66E010E9FECBBF01E0E67
:10539000E66E020E9FECBBF030ECBCF01A0EE66E2F
:1053A000030E9FECBBF0B5EFC3F00001DB0520E17D
:1053B0000001DC051DE1A098DDDF65920001DC6BDA
:1053C0000101100EEA6F0E0EEB6FEA07000EEB5BA9
:1053D000EA51EB11FAE16584080EEA6F070EEB6FF4
:1053E000EA07000EEB5BEA51EB11FAE16594A08845
:1053F0001200D5ECB9F0FD0EDBCF08F0FE0EDBCFCE
:1054000009F0050E081801E1095037E0E8680818AE
:1054100002E17F0E09182FE0030E081801E1095080
:1054200028E0020E081801E1095021E0010E0818D9
:1054300001E109501AE0740E081801E1095013E067
:10544000750E081801E109500CE0730E081801E10F
:10545000095005E0720E08183DE109503BD08BDF82
:1054600039D087DF37D086DF35D08CDF33D089DF86
:1054700031D083DF2FD080DF2DD00001A3510FE189
:10548000010EE66EE66E4DECBEF0E552E552E66AC0
:10549000010EE66E4DECBEF0E552E5521BD0FB0E60
:1054A000DBCF14F0FC0EDBCF15F00001BB5114185C
:1054B00011E1BC5115180EE1400EE66E500EE66E7D
:1054C0000D0EE66EE66A010E6DECBAF0F3CF99F0C0
:1054D000F4CF9AF0010EDAEFB9F012000001480E95
:1054E000D16F0D0ED26F080ED46FD56BDA0ED66F5A
:1054F000540ED76F010ED86FD38F1200D9CFE6FFAD
:10550000E1CFD9FFF29EFB0EDBCFF6FFFC0EDBCF27
:10551000F7FFFD0EDBCFF8FFA684A688550EA76E19
:10552000AA0EA76EA682A694F28EE552E7CFD9FF07
:105530001200D9CFE6FFE1CFD9FFF29EFB0EDBCF01
:10554000F6FFFC0EDBCFF7FFFD0EDBCFF8FFA698D2
:10555000A684550EA76EAA0EA76EA682A694F28EFA
:10556000E552E7CFD9FF1200D9CFE6FFE1CFD9FF4F
:10557000D950F70FE96EFF0EDA20EA6EEE50ED100B
:1055800062E0F29EFB0EDBCFF6FFFC0EDBCFF7FFF7
:10559000FD0EDBCFF8FF0800F90EDBCFE9FFDB2AB9
:1055A000FA0EDBCFEAFF01E3DB2AEF50F56E0D00C8
:1055B000F28EF70EDB06F80E01E2DB06D950FB0F88
:1055C000E96EFF0EDA20EA6EEE2A000EEE22EE22DF
:1055D000EE223F0E146E156A166A176AD950FB0F39
:1055E000E96EFF0EDA20EA6EEE501416EE50151634
:1055F000EE501616EE501716145015101610171000
:1056000021E1FB0EDBCF14F0FC0EDBCF15F0FD0E1D
:10561000DBCF16F0FE0EDBCF17F0400E145E000E4F
:10562000155A000E165A000E175A14C0E6FF15C080
:10563000E6FF16C0E6FF17C0E6FF7BDFE552E55246
:10564000E552E55295D7FB0EDBCF14F0FC0EDBCF15
:1056500015F0FD0EDBCF16F0FE0EDBCF17F014C0F9
:1056600006F015C007F016C008F017C009F000D00A
:10567000E552E7CFD9FF1200D9CFE6FFE1CFD9FF3E
:105680003F0E146E156A166A176AD950FB0FE96E41
:10569000FF0EDA20EA6EEE501416EE501516EE509C
:1056A0001616EE501716145015101610171053E05A
:1056B000F29EFB0EDBCFF6FFFC0EDBCFF7FFFD0EFD
:1056C000DBCFF8FF0800F5680D00F28ED950FB0F14
:1056D000E96EFF0EDA20EA6EEE2A000EEE22EE22CE
:1056E000EE223F0E146E156A166A176AD950FB0F28
:1056F000E96EFF0EDA20EA6EEE501416EE50151623
:10570000EE501616EE5017161450151016101710EE
:1057100021E1FB0EDBCF14F0FC0EDBCF15F0FD0E0C
:10572000DBCF16F0FE0EDBCF17F0400E145E000E3E
:10573000155A000E165A000E175A14C0E6FF15C06F
:10574000E6FF16C0E6FF17C0E6FFF3DEE552E552BE
:10575000E552E55295D7E552E7CFD9FF1200D5ECD7
:10576000B9F0030EE126FC0EDB5048E0020EDB6AC6
:10577000F36EDBCFF4FFE850F45C2DE2F80EDBCFE4
:10578000E6FFF90EDBCFE6FF010EE66EE66ACAEC35
:10579000BCF014E1155012E1300EDF5C0FE3DF5076
:1057A000390806E3010EDB38F00BDF24D00F0ED0F2
:1057B000DF50460803E3410EDF5C02E2010E1FD01A
:1057C000010EDB38F00BDF24BF0F0A0FA5ECBBF096
:1057D000020EDB2ACDD7B4ECBBF001E3DB2A010ECD
:1057E000DBCFEFFFFA0EDBCFE9FFFB0EDBCFEAFFEB
:1057F000010EDB50EF26FC0EDB06B5D7000E146E53
:10580000030EE15C02E2E16AE552E16E1450DAEF68
:10581000B9F0D9CFE6FFE1CFD9FF210EE1260F0184
:105820004E5101E0FF008B8C080E00C1DBFF090E1A
:1058300001C1DBFFF30EE66EB10EE66E010EE66E01
:10584000110EE66EA90EE66E010EE66ECBEC98F038
:10585000166E060EE15E1650F3CFDEFFF4CFDDFFCD
:10586000DECF14F0DDCF15F01450151001E134D265
:10587000020EDB6A030EDB6A010EF36E040EF3CF39
:10588000DBFF050EDB6AD950020FE96EDACFEAFFC3
:10589000000EEE5CFC0EEE58010EEE58000EEE58B7
:1058A00020E2D950020FE96EDACFEAFFEECFE6FF31
:1058B000EECFE6FFEECFE6FFEFCFE6FF1FDEE552CD
:1058C000E552E552E5528B7CD950020FE96EDACFF2
:1058D000EAFFEE52040EEE26000EEE22000EEE223D
:1058E000D2D7080EDB500101005D0001146E090ED5
:1058F000DB50010101590001156E640ED88014546B
:10590000000E15540AE2D950080FE96EDACFEAFF0B
:10591000640EEE26000EED228B7C200EDB6ADECFBD
:10592000E6FFDDCFE6FF010EE66EE66A010EE66EEB
:10593000E66AD9500A0FE66E000EDA20E66EA9EC90
:1059400093F0166E080EE15E1650F3CF14F0F4CF0C
:1059500015F0010E141801E1155001E0BDD10A0E39
:10596000DB503A0801E0B8D1DECFE6FFDDCFE6FF3D
:10597000D950200FE66E000EDA20E66E010EE66EBC
:10598000D9500B0FE66E000EDA20E66EE8DE146EDC
:10599000070EE15E1450000901E09ED10B0EDB50B2
:1059A000100801E299D1DECFE6FFDDCFE6FFD95046
:1059B000200FE66E000EDA20E66E010EE66ED9507C
:1059C0000C0FE66E000EDA20E66EC9DE146E070ECE
:1059D000E15E1450000901E07FD1DECFE6FFDDCFAC
:1059E000E6FFD950200FE66E000EDA20E66E010EBB
:1059F000E66ED9500D0FE66E000EDA20E66EAFDED1
:105A0000146E070EE15E1450000901E065D1DECF8F
:105A1000E6FFDDCFE6FFD950200FE66E000EDA205C
:105A2000E66E010EE66ED9500E0FE66E000EDA201D
:105A3000E66E95DE146E070EE15E1450000901E07B
:105A40004BD1DECFE6FFDDCFE6FFD950200FE66E6B
:105A5000000EDA20E66E0B0EDBCFE6FFD9500F0FFB
:105A6000E66E000EDA20E66E7ADE146E070EE15E58
:105A70001450000901E030D1DECFE6FFDDCFE6FFB4
:105A8000D950200FE66E000EDA20E66E010EE66EAB
:105A9000D9501F0FE66E000EDA20E66E60DE146E3F
:105AA000070EE15E1450000901E016D1200EDB5014
:105AB00001E012D1DECFE6FFDDCFE6FF010EE66E9C
:105AC000E66A010EE66EE66AD9500A0FE66E000E2F
